{
  "contractName": "StravaChallengeHub",
  "abi": [
    {
      "constant": true,
      "inputs": [
        {
          "name": "",
          "type": "uint256"
        }
      ],
      "name": "distanceChallengesById",
      "outputs": [
        {
          "name": "entryFee",
          "type": "uint256"
        },
        {
          "name": "expireTime",
          "type": "uint256"
        },
        {
          "name": "distance",
          "type": "uint256"
        },
        {
          "name": "activityType",
          "type": "uint8"
        }
      ],
      "payable": false,
      "stateMutability": "view",
      "type": "function"
    },
    {
      "constant": true,
      "inputs": [
        {
          "name": "",
          "type": "uint256"
        }
      ],
      "name": "segmentChallengesById",
      "outputs": [
        {
          "name": "entryFee",
          "type": "uint256"
        },
        {
          "name": "expireTime",
          "type": "uint256"
        },
        {
          "name": "timeToBeat",
          "type": "uint256"
        },
        {
          "name": "segmentId",
          "type": "uint256"
        },
        {
          "name": "activityType",
          "type": "uint8"
        }
      ],
      "payable": false,
      "stateMutability": "view",
      "type": "function"
    },
    {
      "constant": true,
      "inputs": [
        {
          "name": "",
          "type": "uint256"
        }
      ],
      "name": "challengeManager",
      "outputs": [
        {
          "name": "numChallenges",
          "type": "uint256"
        }
      ],
      "payable": false,
      "stateMutability": "view",
      "type": "function"
    },
    {
      "anonymous": false,
      "inputs": [
        {
          "indexed": false,
          "name": "_challengeType",
          "type": "uint8"
        },
        {
          "indexed": false,
          "name": "_challengeId",
          "type": "uint256"
        }
      ],
      "name": "ChallengeIssued",
      "type": "event"
    },
    {
      "anonymous": false,
      "inputs": [
        {
          "indexed": false,
          "name": "_challengeType",
          "type": "uint8"
        },
        {
          "indexed": false,
          "name": "_challengeId",
          "type": "uint256"
        },
        {
          "indexed": false,
          "name": "_athleteId",
          "type": "uint256"
        },
        {
          "indexed": false,
          "name": "_athleteAddress",
          "type": "address"
        }
      ],
      "name": "ChallengeJoined",
      "type": "event"
    },
    {
      "anonymous": false,
      "inputs": [
        {
          "indexed": false,
          "name": "_challengeType",
          "type": "uint8"
        },
        {
          "indexed": false,
          "name": "_challengeId",
          "type": "uint256"
        }
      ],
      "name": "ChallengeSettled",
      "type": "event"
    },
    {
      "anonymous": false,
      "inputs": [
        {
          "indexed": false,
          "name": "_challengeType",
          "type": "uint8"
        },
        {
          "indexed": false,
          "name": "_challengeId",
          "type": "uint256"
        },
        {
          "indexed": false,
          "name": "_athleteId",
          "type": "uint256"
        }
      ],
      "name": "AthleteSucceeded",
      "type": "event"
    },
    {
      "constant": true,
      "inputs": [
        {
          "name": "_challengeType",
          "type": "uint8"
        },
        {
          "name": "_challengeId",
          "type": "uint256"
        }
      ],
      "name": "isChallengeSettled",
      "outputs": [
        {
          "name": "",
          "type": "bool"
        }
      ],
      "payable": false,
      "stateMutability": "view",
      "type": "function"
    },
    {
      "constant": true,
      "inputs": [
        {
          "name": "_challengeType",
          "type": "uint8"
        },
        {
          "name": "_challengeId",
          "type": "uint256"
        },
        {
          "name": "_athleteId",
          "type": "uint256"
        }
      ],
      "name": "isAthleteRegistered",
      "outputs": [
        {
          "name": "",
          "type": "bool"
        }
      ],
      "payable": false,
      "stateMutability": "view",
      "type": "function"
    },
    {
      "constant": true,
      "inputs": [
        {
          "name": "_challengeType",
          "type": "uint8"
        },
        {
          "name": "_challengeId",
          "type": "uint256"
        },
        {
          "name": "_athleteId",
          "type": "uint256"
        }
      ],
      "name": "isAthleteSuccessful",
      "outputs": [
        {
          "name": "",
          "type": "bool"
        }
      ],
      "payable": false,
      "stateMutability": "view",
      "type": "function"
    },
    {
      "constant": true,
      "inputs": [
        {
          "name": "_challengeType",
          "type": "uint8"
        },
        {
          "name": "_challengeId",
          "type": "uint256"
        }
      ],
      "name": "getNumAthletes",
      "outputs": [
        {
          "name": "",
          "type": "uint256"
        }
      ],
      "payable": false,
      "stateMutability": "view",
      "type": "function"
    },
    {
      "constant": true,
      "inputs": [
        {
          "name": "_challengeType",
          "type": "uint8"
        },
        {
          "name": "_challengeId",
          "type": "uint256"
        },
        {
          "name": "index",
          "type": "uint256"
        }
      ],
      "name": "getAthleteIdAtIndex",
      "outputs": [
        {
          "name": "",
          "type": "uint256"
        }
      ],
      "payable": false,
      "stateMutability": "view",
      "type": "function"
    },
    {
      "constant": true,
      "inputs": [
        {
          "name": "_challengeType",
          "type": "uint8"
        },
        {
          "name": "_challengeId",
          "type": "uint256"
        },
        {
          "name": "_athleteId",
          "type": "uint256"
        }
      ],
      "name": "getAthleteAddress",
      "outputs": [
        {
          "name": "paybale",
          "type": "address"
        }
      ],
      "payable": false,
      "stateMutability": "view",
      "type": "function"
    },
    {
      "constant": true,
      "inputs": [
        {
          "name": "_challengeType",
          "type": "uint8"
        }
      ],
      "name": "isSegmentChallenge",
      "outputs": [
        {
          "name": "",
          "type": "bool"
        }
      ],
      "payable": false,
      "stateMutability": "pure",
      "type": "function"
    },
    {
      "constant": true,
      "inputs": [
        {
          "name": "_challengeType",
          "type": "uint8"
        }
      ],
      "name": "isDistanceChallenge",
      "outputs": [
        {
          "name": "",
          "type": "bool"
        }
      ],
      "payable": false,
      "stateMutability": "pure",
      "type": "function"
    },
    {
      "constant": true,
      "inputs": [
        {
          "name": "_challengeType",
          "type": "uint8"
        },
        {
          "name": "_challengeId",
          "type": "uint256"
        }
      ],
      "name": "getChallengeExpireTime",
      "outputs": [
        {
          "name": "",
          "type": "uint256"
        }
      ],
      "payable": false,
      "stateMutability": "view",
      "type": "function"
    },
    {
      "constant": true,
      "inputs": [
        {
          "name": "_challengeType",
          "type": "uint8"
        },
        {
          "name": "_challengeId",
          "type": "uint256"
        }
      ],
      "name": "getChallengeEntryFee",
      "outputs": [
        {
          "name": "",
          "type": "uint256"
        }
      ],
      "payable": false,
      "stateMutability": "view",
      "type": "function"
    },
    {
      "constant": true,
      "inputs": [
        {
          "name": "_challengeType",
          "type": "uint8"
        },
        {
          "name": "_challengeId",
          "type": "uint256"
        }
      ],
      "name": "isChallengeExpired",
      "outputs": [
        {
          "name": "",
          "type": "bool"
        }
      ],
      "payable": false,
      "stateMutability": "view",
      "type": "function"
    },
    {
      "constant": true,
      "inputs": [
        {
          "name": "_challengeType",
          "type": "uint8"
        },
        {
          "name": "_challengeId",
          "type": "uint256"
        }
      ],
      "name": "getSuccessfulAthleteIds",
      "outputs": [
        {
          "name": "",
          "type": "uint256[]"
        }
      ],
      "payable": false,
      "stateMutability": "view",
      "type": "function"
    },
    {
      "constant": true,
      "inputs": [
        {
          "name": "_challengeType",
          "type": "uint8"
        },
        {
          "name": "_challengeId",
          "type": "uint256"
        }
      ],
      "name": "getTotalChallengeFunds",
      "outputs": [
        {
          "name": "",
          "type": "uint256"
        }
      ],
      "payable": false,
      "stateMutability": "view",
      "type": "function"
    },
    {
      "constant": false,
      "inputs": [
        {
          "name": "_entryFee",
          "type": "uint256"
        },
        {
          "name": "_expireTime",
          "type": "uint256"
        },
        {
          "name": "_timeToBeat",
          "type": "uint256"
        },
        {
          "name": "_segmentId",
          "type": "uint256"
        },
        {
          "name": "_activityType",
          "type": "uint8"
        }
      ],
      "name": "issueSegmentChallenge",
      "outputs": [
        {
          "name": "",
          "type": "uint256"
        }
      ],
      "payable": false,
      "stateMutability": "nonpayable",
      "type": "function"
    },
    {
      "constant": false,
      "inputs": [
        {
          "name": "_entryFee",
          "type": "uint256"
        },
        {
          "name": "_expireTime",
          "type": "uint256"
        },
        {
          "name": "_distance",
          "type": "uint256"
        },
        {
          "name": "_activityType",
          "type": "uint8"
        }
      ],
      "name": "issueDistanceChallenge",
      "outputs": [
        {
          "name": "",
          "type": "uint256"
        }
      ],
      "payable": false,
      "stateMutability": "nonpayable",
      "type": "function"
    },
    {
      "constant": false,
      "inputs": [
        {
          "name": "_challengeType",
          "type": "uint8"
        },
        {
          "name": "_challengeId",
          "type": "uint256"
        },
        {
          "name": "_athleteId",
          "type": "uint256"
        }
      ],
      "name": "joinChallenge",
      "outputs": [
        {
          "name": "",
          "type": "bool"
        }
      ],
      "payable": true,
      "stateMutability": "payable",
      "type": "function"
    },
    {
      "constant": false,
      "inputs": [
        {
          "name": "_challengeType",
          "type": "uint8"
        },
        {
          "name": "_challengeId",
          "type": "uint256"
        },
        {
          "name": "_athleteId",
          "type": "uint256"
        }
      ],
      "name": "setAthleteSucceeded",
      "outputs": [
        {
          "name": "",
          "type": "bool"
        }
      ],
      "payable": false,
      "stateMutability": "nonpayable",
      "type": "function"
    },
    {
      "constant": false,
      "inputs": [
        {
          "name": "_challengeType",
          "type": "uint8"
        },
        {
          "name": "_challengeId",
          "type": "uint256"
        }
      ],
      "name": "settleChallenge",
      "outputs": [
        {
          "name": "",
          "type": "bool"
        }
      ],
      "payable": false,
      "stateMutability": "nonpayable",
      "type": "function"
    }
  ],
  "bytecode": "0x608060405234801561001057600080fd5b5061167c806100206000396000f3fe60806040526004361061011d576000357c0100000000000000000000000000000000000000000000000000000000900463ffffffff16806309308e0b146101225780630bf21470146101885780630e624318146101e55780631854d10b146102415780631a0e39a5146102de578063497377bf146103485780636f83cc08146103a857806387cfea7f14610404578063958f21c41461046e5780639cedaa9f146104de578063a02ccf8014610570578063acc8d3c4146105ea578063af31510914610646578063b0c7516f146106b8578063b25752b61461070e578063c1089d631461076e578063d2614176146107d8578063e45ed3f41461082e578063f3e921081461088e578063f464c4b314610907578063ffa6b34e14610963575b600080fd5b34801561012e57600080fd5b506101726004803603606081101561014557600080fd5b81019080803560ff16906020019092919080359060200190929190803590602001909291905050506109b2565b6040518082815260200191505060405180910390f35b6101cb6004803603606081101561019e57600080fd5b81019080803560ff16906020019092919080359060200190929190803590602001909291905050506109f2565b604051808215151515815260200191505060405180910390f35b3480156101f157600080fd5b5061022b6004803603604081101561020857600080fd5b81019080803560ff16906020019092919080359060200190929190505050610c4c565b6040518082815260200191505060405180910390f35b34801561024d57600080fd5b506102876004803603604081101561026457600080fd5b81019080803560ff16906020019092919080359060200190929190505050610c77565b6040518080602001828103825283818151815260200191508051906020019060200280838360005b838110156102ca5780820151818401526020810190506102af565b505050509050019250505060405180910390f35b3480156102ea57600080fd5b5061032e6004803603606081101561030157600080fd5b81019080803560ff1690602001909291908035906020019092919080359060200190929190505050610cf8565b604051808215151515815260200191505060405180910390f35b34801561035457600080fd5b5061038e6004803603604081101561036b57600080fd5b81019080803560ff16906020019092919080359060200190929190505050610d81565b604051808215151515815260200191505060405180910390f35b3480156103b457600080fd5b506103ee600480360360408110156103cb57600080fd5b81019080803560ff16906020019092919080359060200190929190505050610db6565b6040518082815260200191505060405180910390f35b34801561041057600080fd5b506104546004803603606081101561042757600080fd5b81019080803560ff1690602001909291908035906020019092919080359060200190929190505050610e17565b604051808215151515815260200191505060405180910390f35b34801561047a57600080fd5b506104c86004803603608081101561049157600080fd5b81019080803590602001909291908035906020019092919080359060200190929190803560ff169060200190929190505050610e5e565b6040518082815260200191505060405180910390f35b3480156104ea57600080fd5b5061052e6004803603606081101561050157600080fd5b81019080803560ff1690602001909291908035906020019092919080359060200190929190505050610f92565b604051808273ffffffffffffffffffffffffffffffffffffffff1673ffffffffffffffffffffffffffffffffffffffff16815260200191505060405180910390f35b34801561057c57600080fd5b506105d4600480360360a081101561059357600080fd5b8101908080359060200190929190803590602001909291908035906020019092919080359060200190929190803560ff169060200190929190505050610fec565b6040518082815260200191505060405180910390f35b3480156105f657600080fd5b506106306004803603604081101561060d57600080fd5b81019080803560ff16906020019092919080359060200190929190505050611131565b6040518082815260200191505060405180910390f35b34801561065257600080fd5b5061067f6004803603602081101561066957600080fd5b810190808035906020019092919050505061116b565b604051808581526020018481526020018381526020018260028111156106a157fe5b60ff16815260200194505050505060405180910390f35b3480156106c457600080fd5b506106f4600480360360208110156106db57600080fd5b81019080803560ff1690602001909291905050506111a8565b604051808215151515815260200191505060405180910390f35b34801561071a57600080fd5b506107546004803603604081101561073157600080fd5b81019080803560ff169060200190929190803590602001909291905050506111ca565b604051808215151515815260200191505060405180910390f35b34801561077a57600080fd5b506107be6004803603606081101561079157600080fd5b81019080803560ff169060200190929190803590602001909291908035906020019092919050505061136b565b604051808215151515815260200191505060405180910390f35b3480156107e457600080fd5b50610814600480360360208110156107fb57600080fd5b81019080803560ff169060200190929190505050611454565b604051808215151515815260200191505060405180910390f35b34801561083a57600080fd5b506108746004803603604081101561085157600080fd5b81019080803560ff16906020019092919080359060200190929190505050611476565b604051808215151515815260200191505060405180910390f35b34801561089a57600080fd5b506108c7600480360360208110156108b157600080fd5b8101908080359060200190929190505050611491565b604051808681526020018581526020018481526020018381526020018260028111156108ef57fe5b60ff1681526020019550505050505060405180910390f35b34801561091357600080fd5b5061094d6004803603604081101561092a57600080fd5b81019080803560ff169060200190929190803590602001909291905050506114d4565b6040518082815260200191505060405180910390f35b34801561096f57600080fd5b5061099c6004803603602081101561098657600080fd5b8101908080359060200190929190505050611535565b6040518082815260200191505060405180910390f35b60006109bd84611553565b6002016000848152602001908152602001600020828154811015156109de57fe5b906000526020600020015490509392505050565b60006109fe8484611476565b151515610a0a57600080fd5b610a15848484610cf8565b151515610a8a576040517f08c379a000000000000000000000000000000000000000000000000000000000815260040180806020018281038252601d8152602001807f4174686c65746520697320616c7265616479207265676973746572656400000081525060200191505060405180910390fd5b6000610a968585610db6565b9050803410151515610b36576040517f08c379a00000000000000000000000000000000000000000000000000000000081526004018080602001828103825260278152602001807f456e74727920666565202865746865722076616c75652920697320696e73756681526020017f66696369656e740000000000000000000000000000000000000000000000000081525060400191505060405180910390fd5b33600080876001811115610b4657fe5b81526020019081526020016000206004016000868152602001908152602001600020600085815260200190815260200160002060006101000a81548173ffffffffffffffffffffffffffffffffffffffff021916908373ffffffffffffffffffffffffffffffffffffffff1602179055507f4495efbfa479d815230cacb2acf162b1ef747f1957e52e1fbd09c12aee553abc8585853360405180856001811115610bec57fe5b60ff1681526020018481526020018381526020018273ffffffffffffffffffffffffffffffffffffffff1673ffffffffffffffffffffffffffffffffffffffff16815260200194505050505060405180910390a160019150509392505050565b6000610c5783611553565b600201600083815260200190815260200160002080549050905092915050565b6060806000610c868585610c4c565b9050600080905060005b82811015610ceb576000610ca58888846109b2565b9050610cb2888883610e17565b15610cdd57808584815181101515610cc657fe5b906020019060200201818152505082806001019350505b508080600101915050610c90565b5082935050505092915050565b60008073ffffffffffffffffffffffffffffffffffffffff16610d1a85611553565b6004016000858152602001908152602001600020600084815260200190815260200160002060009054906101000a900473ffffffffffffffffffffffffffffffffffffffff1673ffffffffffffffffffffffffffffffffffffffff16141590509392505050565b6000610d8c83611553565b600101600083815260200190815260200160002060009054906101000a900460ff16905092915050565b6000610dc183611454565b15610de45760016000838152602001908152602001600020600001549050610e11565b610ded836111a8565b15610e105760026000838152602001908152602001600020600001549050610e11565b5b92915050565b6000610e2284611553565b6003016000848152602001908152602001600020600083815260200190815260200160002060009054906101000a900460ff1690509392505050565b6000610e686115e1565b608060405190810160405280878152602001868152602001858152602001846002811115610e9257fe5b81525090506000610ea36001611553565b600001549050816002600083815260200190815260200160002060008201518160000155602082015181600101556040820151816002015560608201518160030160006101000a81548160ff02191690836002811115610eff57fe5b0217905550905050600080600180811115610f1657fe5b8152602001908152602001600020600001600081548092919060010191905055507f7a2c23699ff5243c3078950824790834d7f749b893f3e5873768dca95dfae5d460018260405180836001811115610f6b57fe5b60ff1681526020018281526020019250505060405180910390a18092505050949350505050565b6000610f9d84611553565b6004016000848152602001908152602001600020600083815260200190815260200160002060009054906101000a900473ffffffffffffffffffffffffffffffffffffffff1690509392505050565b6000610ff6611615565b60a06040519081016040528088815260200187815260200186815260200185815260200184600281111561102657fe5b815250905060006110376000611553565b60000154905081600160008381526020019081526020016000206000820151816000015560208201518160010155604082015181600201556060820151816003015560808201518160040160006101000a81548160ff0219169083600281111561109d57fe5b02179055509050506000808060018111156110b457fe5b8152602001908152602001600020600001600081548092919060010191905055507f7a2c23699ff5243c3078950824790834d7f749b893f3e5873768dca95dfae5d46000826040518083600181111561110957fe5b60ff1681526020018281526020019250505060405180910390a1809250505095945050505050565b60008061113e8484610db6565b9050600061114c8585610c4c565b9050611161818361157990919063ffffffff16565b9250505092915050565b60026020528060005260406000206000915090508060000154908060010154908060020154908060030160009054906101000a900460ff16905084565b60006001808111156111b657fe5b8260018111156111c257fe5b149050919050565b60006111d68383611476565b15156111e157600080fd5b6111eb8383610d81565b1515156111f757600080fd5b60606112038484610c77565b905060008151905060006112178686611131565b9050600061122e83836115b790919063ffffffff16565b905060008090505b838110156112c5576000858281518110151561124e57fe5b90602001906020020151905060006112678a8a84610f92565b905060008190508073ffffffffffffffffffffffffffffffffffffffff166108fc869081150290604051600060405180830381858888f193505050501580156112b4573d6000803e3d6000fd5b505050508080600101915050611236565b5060016000808960018111156112d757fe5b8152602001908152602001600020600101600088815260200190815260200160002060006101000a81548160ff0219169083151502179055507fda048bb591cf512fe11d5b66d83b0bbeed9ca4d855f6f5c362c3bb1285a55cf387876040518083600181111561134357fe5b60ff1681526020018281526020019250505060405180910390a1600194505050505092915050565b60006113778484610d81565b15151561138357600080fd5b61138e848484610cf8565b151561139957600080fd5b60016000808660018111156113aa57fe5b81526020019081526020016000206003016000858152602001908152602001600020600084815260200190815260200160002060006101000a81548160ff0219169083151502179055507fa81db86e93caa3332e3c8b539b9c7d5c7eead8f6b9fac0261ad3248aa8c5e6f48484846040518084600181111561142857fe5b60ff168152602001838152602001828152602001935050505060405180910390a1600190509392505050565b600080600181111561146257fe5b82600181111561146e57fe5b149050919050565b60008061148384846114d4565b905080421191505092915050565b60016020528060005260406000206000915090508060000154908060010154908060020154908060030154908060040160009054906101000a900460ff16905085565b60006114df83611454565b15611502576001600083815260200190815260200160002060010154905061152f565b61150b836111a8565b1561152e576002600083815260200190815260200160002060010154905061152f565b5b92915050565b60006020528060005260406000206000915090508060000154905081565b600080600083600181111561156457fe5b81526020019081526020016000209050919050565b60008083141561158c57600090506115b1565b6000828402905082848281151561159f57fe5b041415156115ac57600080fd5b809150505b92915050565b600080821115156115c757600080fd5b600082848115156115d457fe5b0490508091505092915050565b6080604051908101604052806000815260200160008152602001600081526020016000600281111561160f57fe5b81525090565b60a060405190810160405280600081526020016000815260200160008152602001600081526020016000600281111561164a57fe5b8152509056fea165627a7a72305820679f4d927dba85e73dc480ec107f7277c3ea9282c8f174715dc8348f7f06fa000029",
  "source": "pragma solidity ^0.5.0;\nimport \"openzeppelin-solidity/contracts/math/SafeMath.sol\";\n\ncontract StravaChallengeHub {\n    // Libraries\n    using SafeMath for uint;\n\n    // Enums\n    // https://solidity.readthedocs.io/en/v0.5.4/types.html?highlight=enum%20argument#enums\n    enum ActivityType { Ride, Run, Swim }     // Strava activity type\n    enum ChallengeType { Segment, Distance }  // Type of challenge\n    \n    // Structs\n    struct SegmentChallenge {\n        uint entryFee;              // amount ether to enter the challenge\n        uint expireTime;            // datetime that challenge expires at (seconds)\n        uint timeToBeat;            // time to complete segment in (seconds)\n        uint segmentId;           // strava segment id\n        ActivityType activityType;  // ride / run / swim (as uint)\n    }\n    struct DistanceChallenge {\n        uint entryFee;              // amount ether to enter the challenge\n        uint expireTime;            // datetime that challenge expires at (seconds)\n        uint distance;              // distance to complete the challenge (feet)\n        ActivityType activityType;  // ride / run / swim (as uint)\n    }\n    struct ChallengeMetaData {\n        uint numChallenges;\n        mapping (uint => bool) settled;\n        mapping (uint => uint[]) athleteIds;\n        mapping (uint => mapping(uint => bool)) athleteSucceeded;\n        mapping (uint => mapping(uint => address)) athleteAddress;\n    }\n\n    // Storage vars\n    mapping (uint => ChallengeMetaData) public challengeManager;\n    mapping (uint => SegmentChallenge) public segmentChallengesById;\n    mapping (uint => DistanceChallenge) public distanceChallengesById;\n\n    // Events\n    event ChallengeIssued (ChallengeType _challengeType, uint _challengeId);\n    event ChallengeJoined (ChallengeType _challengeType, uint _challengeId, uint _athleteId, address _athleteAddress);\n    event ChallengeSettled (ChallengeType _challengeType, uint _challengeId);\n    event AthleteSucceeded (ChallengeType _challengeType, uint _challengeId, uint _athleteId);\n\n    // Pure / View functions\n    // ------------------------------------------------------\n    function _getChallengeMetaData(ChallengeType _challengeType) internal view returns (ChallengeMetaData storage) {\n        return challengeManager[uint(_challengeType)];\n    }\n    \n    function isChallengeSettled(ChallengeType _challengeType, uint _challengeId) public view returns (bool) {\n        return _getChallengeMetaData(_challengeType).settled[_challengeId];\n    }\n    \n    function isAthleteRegistered(ChallengeType _challengeType, uint _challengeId, uint _athleteId) public view returns (bool) {\n        return _getChallengeMetaData(_challengeType).athleteAddress[_challengeId][_athleteId] != address(0x0);\n    }\n\n    function isAthleteSuccessful(ChallengeType _challengeType, uint _challengeId, uint _athleteId) public view returns (bool) {\n        return _getChallengeMetaData(_challengeType).athleteSucceeded[_challengeId][_athleteId];\n    }\n    \n    function getNumAthletes(ChallengeType _challengeType, uint _challengeId) public view returns (uint) {\n        return _getChallengeMetaData(_challengeType).athleteIds[_challengeId].length;\n    }\n    \n    function getAthleteIdAtIndex(ChallengeType _challengeType, uint _challengeId, uint index) public view returns (uint) {\n        return _getChallengeMetaData(_challengeType).athleteIds[_challengeId][index];\n    }\n    \n    function getAthleteAddress(ChallengeType _challengeType, uint _challengeId, uint _athleteId) public view returns (address paybale) {\n        return _getChallengeMetaData(_challengeType).athleteAddress[_challengeId][_athleteId];\n    }\n\n    function isSegmentChallenge(ChallengeType _challengeType) public pure returns (bool) {\n        return _challengeType == ChallengeType.Segment;\n    }\n    \n    function isDistanceChallenge(ChallengeType _challengeType) public pure returns (bool) {\n        return _challengeType == ChallengeType.Distance;\n    }\n\n    function getChallengeExpireTime(ChallengeType _challengeType, uint _challengeId) public view returns (uint) {\n        if (isSegmentChallenge(_challengeType))\n            return segmentChallengesById[_challengeId].expireTime;\n        if (isDistanceChallenge(_challengeType))\n            return distanceChallengesById[_challengeId].expireTime;\n    }\n    \n    function getChallengeEntryFee(ChallengeType _challengeType, uint _challengeId) public view returns (uint) {\n        if (isSegmentChallenge(_challengeType))\n            return segmentChallengesById[_challengeId].entryFee;\n        if (isDistanceChallenge(_challengeType))\n            return distanceChallengesById[_challengeId].entryFee;\n    }\n    \n    function isChallengeExpired(ChallengeType _challengeType, uint _challengeId) public view returns (bool) {\n        uint expireTime = getChallengeExpireTime(_challengeType, _challengeId);\n        return now > expireTime;\n    }\n    \n    function getSuccessfulAthleteIds(ChallengeType _challengeType, uint _challengeId) public view returns (uint[] memory) {\n        uint[] memory successfulAthleteIds;\n        uint numAthletes = getNumAthletes(_challengeType, _challengeId);\n        uint resultIndex = 0;\n        \n        // iterate over athlete ids, push successful ones to array\n        for (uint index; index < numAthletes; index++) {\n            uint _athleteId = getAthleteIdAtIndex(_challengeType, _challengeId, index);\n            if (isAthleteSuccessful(_challengeType, _challengeId, _athleteId)) {\n                successfulAthleteIds[resultIndex] = _athleteId;\n                resultIndex++;\n            }\n        }\n        \n        return successfulAthleteIds;\n    }\n    \n    function getTotalChallengeFunds(ChallengeType _challengeType, uint _challengeId) public view returns (uint) {\n        uint entryFee = getChallengeEntryFee(_challengeType, _challengeId);\n        uint numAthletes = getNumAthletes(_challengeType, _challengeId);\n        return entryFee.mul(numAthletes);\n    }\n    \n    // Destructive functions\n    // ------------------------------------------------------\n    function issueSegmentChallenge(\n        uint _entryFee,\n        uint _expireTime,\n        uint _timeToBeat,\n        uint _segmentId,\n        ActivityType _activityType\n    ) public returns (uint) {\n        // initialize SegmentChallenge struct\n        SegmentChallenge memory issuedSegmentChallenge = SegmentChallenge({\n            entryFee: _entryFee,\n            expireTime: _expireTime,\n            timeToBeat: _timeToBeat,\n            segmentId: _segmentId,\n            activityType: _activityType\n        });\n        \n        // Get the challenge id from the number of challenges\n        uint _challengeId = _getChallengeMetaData(ChallengeType.Segment).numChallenges;\n        \n        // Add struct to challenges mapping\n        segmentChallengesById[_challengeId] = issuedSegmentChallenge;\n        \n        // Increment the counter\n        challengeManager[uint(ChallengeType.Segment)].numChallenges++;\n        \n        // Log ChallengeIssued event\n        emit ChallengeIssued(ChallengeType.Segment, _challengeId);\n        \n        // return challengeId\n        return _challengeId;\n    }\n    \n    function issueDistanceChallenge(\n        uint _entryFee,\n        uint _expireTime,\n        uint _distance,\n        ActivityType _activityType\n    ) public returns (uint) {\n        // initialize DistanceChallenge struct\n        DistanceChallenge memory issuedDistanceChallenge = DistanceChallenge({\n            entryFee: _entryFee,\n            expireTime: _expireTime,\n            distance: _distance,\n            activityType: _activityType\n        });\n        \n        // Get the challenge id from the number of challenges\n        uint _challengeId = _getChallengeMetaData(ChallengeType.Distance).numChallenges;\n        \n        // Add struct to challenges mapping\n        distanceChallengesById[_challengeId] = issuedDistanceChallenge;\n        \n        // Increment the counter\n        challengeManager[uint(ChallengeType.Distance)].numChallenges++;\n        \n        // Log ChallengeIssued event\n        emit ChallengeIssued(ChallengeType.Distance, _challengeId);\n        \n        // return challengeId\n        return _challengeId;\n    }\n    \n\n    function joinChallenge (\n        ChallengeType _challengeType,\n        uint _challengeId,\n        uint _athleteId\n    ) public payable returns (bool) {\n        // make sure challenge is not expired\n        require(!isChallengeExpired(_challengeType, _challengeId));\n        \n        // make sure athlete hasn't joined the challenge already\n        require(!isAthleteRegistered(_challengeType, _challengeId, _athleteId), \"Athlete is already registered\");\n\n        // make sure sender is paying their full entry fee\n        uint entryFee = getChallengeEntryFee(_challengeType, _challengeId);\n        require(msg.value >= entryFee, \"Entry fee (ether value) is insufficient\");\n    \n        // flag athelete as registered for challenge\n        challengeManager[uint(_challengeType)].athleteAddress[_challengeId][_athleteId] = msg.sender;\n\n        // Log ChallengeJoined event\n        emit ChallengeJoined(_challengeType, _challengeId, _athleteId, msg.sender);\n        \n        return true;\n    }\n    \n    // TODO: Permissions\n    function setAthleteSucceeded(\n        ChallengeType _challengeType,\n        uint _challengeId,\n        uint _athleteId\n    ) external returns (bool) {\n        // check that challenge is not settled and the athlete is registered\n        require(!isChallengeSettled(_challengeType, _challengeId));\n        require(isAthleteRegistered(_challengeType, _challengeId, _athleteId));\n        \n        // flag athlete as successful\n        challengeManager[uint(_challengeType)].athleteSucceeded[_challengeId][_athleteId] = true;\n        \n        // log AthleteSuceeded event\n        emit AthleteSucceeded(_challengeType, _challengeId, _athleteId);\n        \n        return true;\n    }\n    \n    // TODO: Permissions\n    function settleChallenge (\n        ChallengeType _challengeType,\n        uint _challengeId\n    ) external returns (bool) {\n        // make sure challenge is expired and not settled\n        require(isChallengeExpired(_challengeType, _challengeId));\n        require(!isChallengeSettled(_challengeType, _challengeId));\n        \n        uint[] memory successfulAthleteIds = getSuccessfulAthleteIds(_challengeType, _challengeId);\n        uint numAthletesSucceeded = successfulAthleteIds.length;\n        uint totalChallengeFunds = getTotalChallengeFunds(_challengeType, _challengeId);\n        uint rewardValue = totalChallengeFunds.div(numAthletesSucceeded);\n        \n        for (uint index = 0; index < numAthletesSucceeded; index++) {\n            uint _athleteId = successfulAthleteIds[index];\n            address _athleteAddress = getAthleteAddress(_challengeType, _challengeId, _athleteId);\n            address payable recipient = address(uint160(_athleteAddress));\n            recipient.transfer(rewardValue);\n        }\n        \n        // flag challenge as settled\n        challengeManager[uint(_challengeType)].settled[_challengeId] = true;\n        \n        // emit ChallengeSettled event\n        emit ChallengeSettled(_challengeType, _challengeId);\n\n        return true;\n    }\n}",
  "sourcePath": "/Users/rongierlach/Development/gran-fondo/contracts/StravaChallengeHub.sol",
  "compiler": {
    "name": "solc",
    "version": "0.5.0+commit.1d4f565a.Emscripten.clang"
  },
  "schemaVersion": "3.0.2",
  "updatedAt": "2019-02-16T10:33:29.586Z",
  "devdoc": {
    "methods": {}
  },
  "userdoc": {
    "methods": {}
  }
}