{
  "contractName": "StravaChallengeHub",
  "abi": [
    {
      "constant": true,
      "inputs": [
        {
          "name": "",
          "type": "uint256"
        }
      ],
      "name": "distanceChallengesById",
      "outputs": [
        {
          "name": "entryFee",
          "type": "uint256"
        },
        {
          "name": "expireTime",
          "type": "uint256"
        },
        {
          "name": "distance",
          "type": "uint256"
        },
        {
          "name": "activityType",
          "type": "uint8"
        }
      ],
      "payable": false,
      "stateMutability": "view",
      "type": "function",
      "signature": "0xaf315109"
    },
    {
      "constant": true,
      "inputs": [
        {
          "name": "",
          "type": "uint256"
        }
      ],
      "name": "segmentChallengesById",
      "outputs": [
        {
          "name": "entryFee",
          "type": "uint256"
        },
        {
          "name": "expireTime",
          "type": "uint256"
        },
        {
          "name": "timeToBeat",
          "type": "uint256"
        },
        {
          "name": "segmentId",
          "type": "uint256"
        },
        {
          "name": "activityType",
          "type": "uint8"
        }
      ],
      "payable": false,
      "stateMutability": "view",
      "type": "function",
      "signature": "0xf3e92108"
    },
    {
      "constant": true,
      "inputs": [
        {
          "name": "",
          "type": "uint256"
        }
      ],
      "name": "challengeManager",
      "outputs": [
        {
          "name": "numChallenges",
          "type": "uint256"
        }
      ],
      "payable": false,
      "stateMutability": "view",
      "type": "function",
      "signature": "0xffa6b34e"
    },
    {
      "anonymous": false,
      "inputs": [
        {
          "indexed": false,
          "name": "_challengeType",
          "type": "uint8"
        },
        {
          "indexed": false,
          "name": "_challengeId",
          "type": "uint256"
        }
      ],
      "name": "ChallengeIssued",
      "type": "event",
      "signature": "0x7a2c23699ff5243c3078950824790834d7f749b893f3e5873768dca95dfae5d4"
    },
    {
      "anonymous": false,
      "inputs": [
        {
          "indexed": false,
          "name": "_challengeType",
          "type": "uint8"
        },
        {
          "indexed": false,
          "name": "_challengeId",
          "type": "uint256"
        },
        {
          "indexed": false,
          "name": "_athleteId",
          "type": "uint256"
        },
        {
          "indexed": false,
          "name": "_athleteAddress",
          "type": "address"
        }
      ],
      "name": "ChallengeJoined",
      "type": "event",
      "signature": "0x4495efbfa479d815230cacb2acf162b1ef747f1957e52e1fbd09c12aee553abc"
    },
    {
      "anonymous": false,
      "inputs": [
        {
          "indexed": false,
          "name": "_challengeType",
          "type": "uint8"
        },
        {
          "indexed": false,
          "name": "_challengeId",
          "type": "uint256"
        }
      ],
      "name": "ChallengeSettled",
      "type": "event",
      "signature": "0xda048bb591cf512fe11d5b66d83b0bbeed9ca4d855f6f5c362c3bb1285a55cf3"
    },
    {
      "anonymous": false,
      "inputs": [
        {
          "indexed": false,
          "name": "_challengeType",
          "type": "uint8"
        },
        {
          "indexed": false,
          "name": "_challengeId",
          "type": "uint256"
        },
        {
          "indexed": false,
          "name": "_athleteId",
          "type": "uint256"
        }
      ],
      "name": "AthleteSucceeded",
      "type": "event",
      "signature": "0xa81db86e93caa3332e3c8b539b9c7d5c7eead8f6b9fac0261ad3248aa8c5e6f4"
    },
    {
      "anonymous": false,
      "inputs": [
        {
          "indexed": true,
          "name": "id",
          "type": "bytes32"
        }
      ],
      "name": "ChainlinkRequested",
      "type": "event",
      "signature": "0xb5e6e01e79f91267dc17b4e6314d5d4d03593d2ceee0fbb452b750bd70ea5af9"
    },
    {
      "anonymous": false,
      "inputs": [
        {
          "indexed": true,
          "name": "id",
          "type": "bytes32"
        }
      ],
      "name": "ChainlinkFulfilled",
      "type": "event",
      "signature": "0x7cc135e0cebb02c3480ae5d74d377283180a2601f8f644edf7987b009316c63a"
    },
    {
      "anonymous": false,
      "inputs": [
        {
          "indexed": true,
          "name": "id",
          "type": "bytes32"
        }
      ],
      "name": "ChainlinkCancelled",
      "type": "event",
      "signature": "0xe1fe3afa0f7f761ff0a8b89086790efd5140d2907ebd5b7ff6bfcb5e075fd4c5"
    },
    {
      "constant": true,
      "inputs": [
        {
          "name": "_challengeType",
          "type": "uint8"
        },
        {
          "name": "_challengeId",
          "type": "uint256"
        }
      ],
      "name": "isChallengeSettled",
      "outputs": [
        {
          "name": "",
          "type": "bool"
        }
      ],
      "payable": false,
      "stateMutability": "view",
      "type": "function",
      "signature": "0x497377bf"
    },
    {
      "constant": true,
      "inputs": [
        {
          "name": "_challengeType",
          "type": "uint8"
        },
        {
          "name": "_challengeId",
          "type": "uint256"
        },
        {
          "name": "_athleteId",
          "type": "uint256"
        }
      ],
      "name": "isAthleteRegistered",
      "outputs": [
        {
          "name": "",
          "type": "bool"
        }
      ],
      "payable": false,
      "stateMutability": "view",
      "type": "function",
      "signature": "0x1a0e39a5"
    },
    {
      "constant": true,
      "inputs": [
        {
          "name": "_challengeType",
          "type": "uint8"
        },
        {
          "name": "_challengeId",
          "type": "uint256"
        },
        {
          "name": "_athleteId",
          "type": "uint256"
        }
      ],
      "name": "isAthleteSuccessful",
      "outputs": [
        {
          "name": "",
          "type": "bool"
        }
      ],
      "payable": false,
      "stateMutability": "view",
      "type": "function",
      "signature": "0x87cfea7f"
    },
    {
      "constant": true,
      "inputs": [
        {
          "name": "_challengeType",
          "type": "uint8"
        },
        {
          "name": "_challengeId",
          "type": "uint256"
        }
      ],
      "name": "getNumAthletes",
      "outputs": [
        {
          "name": "",
          "type": "uint256"
        }
      ],
      "payable": false,
      "stateMutability": "view",
      "type": "function",
      "signature": "0x0e624318"
    },
    {
      "constant": true,
      "inputs": [
        {
          "name": "_challengeType",
          "type": "uint8"
        },
        {
          "name": "_challengeId",
          "type": "uint256"
        },
        {
          "name": "index",
          "type": "uint256"
        }
      ],
      "name": "getAthleteIdAtIndex",
      "outputs": [
        {
          "name": "",
          "type": "uint256"
        }
      ],
      "payable": false,
      "stateMutability": "view",
      "type": "function",
      "signature": "0x09308e0b"
    },
    {
      "constant": true,
      "inputs": [
        {
          "name": "_challengeType",
          "type": "uint8"
        },
        {
          "name": "_challengeId",
          "type": "uint256"
        },
        {
          "name": "_athleteId",
          "type": "uint256"
        }
      ],
      "name": "getAthleteAddress",
      "outputs": [
        {
          "name": "paybale",
          "type": "address"
        }
      ],
      "payable": false,
      "stateMutability": "view",
      "type": "function",
      "signature": "0x9cedaa9f"
    },
    {
      "constant": true,
      "inputs": [
        {
          "name": "_challengeType",
          "type": "uint8"
        }
      ],
      "name": "isSegmentChallenge",
      "outputs": [
        {
          "name": "",
          "type": "bool"
        }
      ],
      "payable": false,
      "stateMutability": "pure",
      "type": "function",
      "signature": "0xd2614176"
    },
    {
      "constant": true,
      "inputs": [
        {
          "name": "_challengeType",
          "type": "uint8"
        }
      ],
      "name": "isDistanceChallenge",
      "outputs": [
        {
          "name": "",
          "type": "bool"
        }
      ],
      "payable": false,
      "stateMutability": "pure",
      "type": "function",
      "signature": "0xb0c7516f"
    },
    {
      "constant": true,
      "inputs": [
        {
          "name": "_challengeType",
          "type": "uint8"
        },
        {
          "name": "_challengeId",
          "type": "uint256"
        }
      ],
      "name": "getChallengeExpireTime",
      "outputs": [
        {
          "name": "",
          "type": "uint256"
        }
      ],
      "payable": false,
      "stateMutability": "view",
      "type": "function",
      "signature": "0xf464c4b3"
    },
    {
      "constant": true,
      "inputs": [
        {
          "name": "_challengeType",
          "type": "uint8"
        },
        {
          "name": "_challengeId",
          "type": "uint256"
        }
      ],
      "name": "getChallengeEntryFee",
      "outputs": [
        {
          "name": "",
          "type": "uint256"
        }
      ],
      "payable": false,
      "stateMutability": "view",
      "type": "function",
      "signature": "0x6f83cc08"
    },
    {
      "constant": true,
      "inputs": [
        {
          "name": "_challengeType",
          "type": "uint8"
        },
        {
          "name": "_challengeId",
          "type": "uint256"
        }
      ],
      "name": "isChallengeExpired",
      "outputs": [
        {
          "name": "",
          "type": "bool"
        }
      ],
      "payable": false,
      "stateMutability": "view",
      "type": "function",
      "signature": "0xe45ed3f4"
    },
    {
      "constant": true,
      "inputs": [
        {
          "name": "_challengeType",
          "type": "uint8"
        },
        {
          "name": "_challengeId",
          "type": "uint256"
        }
      ],
      "name": "getAthleteIds",
      "outputs": [
        {
          "name": "",
          "type": "uint256[]"
        }
      ],
      "payable": false,
      "stateMutability": "view",
      "type": "function",
      "signature": "0xe8999818"
    },
    {
      "constant": true,
      "inputs": [
        {
          "name": "_challengeType",
          "type": "uint8"
        },
        {
          "name": "_challengeId",
          "type": "uint256"
        }
      ],
      "name": "getSuccessfulAthleteIds",
      "outputs": [
        {
          "name": "",
          "type": "uint256[]"
        }
      ],
      "payable": false,
      "stateMutability": "view",
      "type": "function",
      "signature": "0x1854d10b"
    },
    {
      "constant": true,
      "inputs": [
        {
          "name": "_challengeType",
          "type": "uint8"
        },
        {
          "name": "_challengeId",
          "type": "uint256"
        }
      ],
      "name": "getTotalChallengeFunds",
      "outputs": [
        {
          "name": "",
          "type": "uint256"
        }
      ],
      "payable": false,
      "stateMutability": "view",
      "type": "function",
      "signature": "0xacc8d3c4"
    },
    {
      "constant": false,
      "inputs": [
        {
          "name": "_entryFee",
          "type": "uint256"
        },
        {
          "name": "_expireTime",
          "type": "uint256"
        },
        {
          "name": "_timeToBeat",
          "type": "uint256"
        },
        {
          "name": "_segmentId",
          "type": "uint256"
        },
        {
          "name": "_activityType",
          "type": "uint8"
        }
      ],
      "name": "issueSegmentChallenge",
      "outputs": [
        {
          "name": "",
          "type": "uint256"
        }
      ],
      "payable": false,
      "stateMutability": "nonpayable",
      "type": "function",
      "signature": "0xa02ccf80"
    },
    {
      "constant": false,
      "inputs": [
        {
          "name": "_entryFee",
          "type": "uint256"
        },
        {
          "name": "_expireTime",
          "type": "uint256"
        },
        {
          "name": "_distance",
          "type": "uint256"
        },
        {
          "name": "_activityType",
          "type": "uint8"
        }
      ],
      "name": "issueDistanceChallenge",
      "outputs": [
        {
          "name": "",
          "type": "uint256"
        }
      ],
      "payable": false,
      "stateMutability": "nonpayable",
      "type": "function",
      "signature": "0x958f21c4"
    },
    {
      "constant": false,
      "inputs": [
        {
          "name": "_challengeType",
          "type": "uint8"
        },
        {
          "name": "_challengeId",
          "type": "uint256"
        },
        {
          "name": "_athleteId",
          "type": "uint256"
        }
      ],
      "name": "joinChallenge",
      "outputs": [
        {
          "name": "",
          "type": "bool"
        }
      ],
      "payable": true,
      "stateMutability": "payable",
      "type": "function",
      "signature": "0x0bf21470"
    },
    {
      "constant": false,
      "inputs": [
        {
          "name": "_challengeType",
          "type": "uint8"
        },
        {
          "name": "_challengeId",
          "type": "uint256"
        },
        {
          "name": "_athleteId",
          "type": "uint256"
        }
      ],
      "name": "setAthleteSucceeded",
      "outputs": [
        {
          "name": "",
          "type": "bool"
        }
      ],
      "payable": false,
      "stateMutability": "nonpayable",
      "type": "function",
      "signature": "0xc1089d63"
    },
    {
      "constant": false,
      "inputs": [
        {
          "name": "_challengeType",
          "type": "uint8"
        },
        {
          "name": "_challengeId",
          "type": "uint256"
        }
      ],
      "name": "settleChallenge",
      "outputs": [
        {
          "name": "",
          "type": "bool"
        }
      ],
      "payable": false,
      "stateMutability": "nonpayable",
      "type": "function",
      "signature": "0xb25752b6"
    }
  ],
  "bytecode": "0x6080604052600160045534801561001557600080fd5b506115e9806100256000396000f300608060405260043610610128576000357c0100000000000000000000000000000000000000000000000000000000900463ffffffff16806309308e0b1461012d5780630bf21470146101855780630e624318146101d45780631854d10b146102225780631a0e39a5146102b1578063497377bf1461030d5780636f83cc081461035f57806387cfea7f146103ad578063958f21c4146104095780639cedaa9f1461046b578063a02ccf80146104ef578063acc8d3c41461055b578063af315109146105a9578063b0c7516f1461060d578063b25752b614610655578063c1089d63146106a7578063d261417614610703578063e45ed3f41461074b578063e89998181461079d578063f3e921081461082c578063f464c4b314610897578063ffa6b34e146108e5575b600080fd5b34801561013957600080fd5b5061016f600480360381019080803560ff1690602001909291908035906020019092919080359060200190929190505050610926565b6040518082815260200191505060405180910390f35b6101ba600480360381019080803560ff1690602001909291908035906020019092919080359060200190929190505050610966565b604051808215151515815260200191505060405180910390f35b3480156101e057600080fd5b5061020c600480360381019080803560ff16906020019092919080359060200190929190505050610bc0565b6040518082815260200191505060405180910390f35b34801561022e57600080fd5b5061025a600480360381019080803560ff16906020019092919080359060200190929190505050610beb565b6040518080602001828103825283818151815260200191508051906020019060200280838360005b8381101561029d578082015181840152602081019050610282565b505050509050019250505060405180910390f35b3480156102bd57600080fd5b506102f3600480360381019080803560ff1690602001909291908035906020019092919080359060200190929190505050610c6b565b604051808215151515815260200191505060405180910390f35b34801561031957600080fd5b50610345600480360381019080803560ff16906020019092919080359060200190929190505050610cf4565b604051808215151515815260200191505060405180910390f35b34801561036b57600080fd5b50610397600480360381019080803560ff16906020019092919080359060200190929190505050610d29565b6040518082815260200191505060405180910390f35b3480156103b957600080fd5b506103ef600480360381019080803560ff1690602001909291908035906020019092919080359060200190929190505050610d8a565b604051808215151515815260200191505060405180910390f35b34801561041557600080fd5b50610455600480360381019080803590602001909291908035906020019092919080359060200190929190803560ff169060200190929190505050610dd1565b6040518082815260200191505060405180910390f35b34801561047757600080fd5b506104ad600480360381019080803560ff1690602001909291908035906020019092919080359060200190929190505050610f06565b604051808273ffffffffffffffffffffffffffffffffffffffff1673ffffffffffffffffffffffffffffffffffffffff16815260200191505060405180910390f35b3480156104fb57600080fd5b5061054560048036038101908080359060200190929190803590602001909291908035906020019092919080359060200190929190803560ff169060200190929190505050610f60565b6040518082815260200191505060405180910390f35b34801561056757600080fd5b50610593600480360381019080803560ff169060200190929190803590602001909291905050506110a6565b6040518082815260200191505060405180910390f35b3480156105b557600080fd5b506105d4600480360381019080803590602001909291905050506110d0565b604051808581526020018481526020018381526020018260028111156105f657fe5b60ff16815260200194505050505060405180910390f35b34801561061957600080fd5b5061063b600480360381019080803560ff16906020019092919050505061110d565b604051808215151515815260200191505060405180910390f35b34801561066157600080fd5b5061068d600480360381019080803560ff1690602001909291908035906020019092919050505061112f565b604051808215151515815260200191505060405180910390f35b3480156106b357600080fd5b506106e9600480360381019080803560ff16906020019092919080359060200190929190803590602001909291905050506112c8565b604051808215151515815260200191505060405180910390f35b34801561070f57600080fd5b50610731600480360381019080803560ff1690602001909291905050506113b2565b604051808215151515815260200191505060405180910390f35b34801561075757600080fd5b50610783600480360381019080803560ff169060200190929190803590602001909291905050506113d4565b604051808215151515815260200191505060405180910390f35b3480156107a957600080fd5b506107d5600480360381019080803560ff169060200190929190803590602001909291905050506113ef565b6040518080602001828103825283818151815260200191508051906020019060200280838360005b838110156108185780820151818401526020810190506107fd565b505050509050019250505060405180910390f35b34801561083857600080fd5b5061085760048036038101908080359060200190929190505050611465565b6040518086815260200185815260200184815260200183815260200182600281111561087f57fe5b60ff1681526020019550505050505060405180910390f35b3480156108a357600080fd5b506108cf600480360381019080803560ff169060200190929190803590602001909291905050506114a8565b6040518082815260200191505060405180910390f35b3480156108f157600080fd5b5061091060048036038101908080359060200190929190505050611509565b6040518082815260200191505060405180910390f35b600061093184611527565b60020160008481526020019081526020016000208281548110151561095257fe5b906000526020600020015490509392505050565b60008061097385856113d4565b15151561097f57600080fd5b61098a858585610c6b565b1515156109ff576040517f08c379a000000000000000000000000000000000000000000000000000000000815260040180806020018281038252601d8152602001807f4174686c65746520697320616c7265616479207265676973746572656400000081525060200191505060405180910390fd5b610a098585610d29565b9050803410151515610aa9576040517f08c379a00000000000000000000000000000000000000000000000000000000081526004018080602001828103825260278152602001807f456e74727920666565202865746865722076616c75652920697320696e73756681526020017f66696369656e740000000000000000000000000000000000000000000000000081525060400191505060405180910390fd5b3360066000876001811115610aba57fe5b81526020019081526020016000206004016000868152602001908152602001600020600085815260200190815260200160002060006101000a81548173ffffffffffffffffffffffffffffffffffffffff021916908373ffffffffffffffffffffffffffffffffffffffff1602179055507f4495efbfa479d815230cacb2acf162b1ef747f1957e52e1fbd09c12aee553abc8585853360405180856001811115610b6057fe5b60ff1681526020018481526020018381526020018273ffffffffffffffffffffffffffffffffffffffff1673ffffffffffffffffffffffffffffffffffffffff16815260200194505050505060405180910390a160019150509392505050565b6000610bcb83611527565b600201600083815260200190815260200160002080549050905092915050565b606080600080600080610bfe8888610bc0565b9350600092505b83821015610c5d57610c18888884610926565b9050610c25888883610d8a565b15610c5057808584815181101515610c3957fe5b906020019060200201818152505082806001019350505b8180600101925050610c05565b849550505050505092915050565b60008073ffffffffffffffffffffffffffffffffffffffff16610c8d85611527565b6004016000858152602001908152602001600020600084815260200190815260200160002060009054906101000a900473ffffffffffffffffffffffffffffffffffffffff1673ffffffffffffffffffffffffffffffffffffffff16141590509392505050565b6000610cff83611527565b600101600083815260200190815260200160002060009054906101000a900460ff16905092915050565b6000610d34836113b2565b15610d575760076000838152602001908152602001600020600001549050610d84565b610d608361110d565b15610d835760086000838152602001908152602001600020600001549050610d84565b5b92915050565b6000610d9584611527565b6003016000848152602001908152602001600020600083815260200190815260200160002060009054906101000a900460ff1690509392505050565b6000610ddb61154e565b6000608060405190810160405280888152602001878152602001868152602001856002811115610e0757fe5b8152509150610e166001611527565b600001549050816008600083815260200190815260200160002060008201518160000155602082015181600101556040820151816002015560608201518160030160006101000a81548160ff02191690836002811115610e7257fe5b021790555090505060066000600180811115610e8a57fe5b8152602001908152602001600020600001600081548092919060010191905055507f7a2c23699ff5243c3078950824790834d7f749b893f3e5873768dca95dfae5d460018260405180836001811115610edf57fe5b60ff1681526020018281526020019250505060405180910390a18092505050949350505050565b6000610f1184611527565b6004016000848152602001908152602001600020600083815260200190815260200160002060009054906101000a900473ffffffffffffffffffffffffffffffffffffffff1690509392505050565b6000610f6a611582565b600060a060405190810160405280898152602001888152602001878152602001868152602001856002811115610f9c57fe5b8152509150610fab6000611527565b60000154905081600760008381526020019081526020016000206000820151816000015560208201518160010155604082015181600201556060820151816003015560808201518160040160006101000a81548160ff0219169083600281111561101157fe5b02179055509050506006600080600181111561102957fe5b8152602001908152602001600020600001600081548092919060010191905055507f7a2c23699ff5243c3078950824790834d7f749b893f3e5873768dca95dfae5d46000826040518083600181111561107e57fe5b60ff1681526020018281526020019250505060405180910390a1809250505095945050505050565b60008060006110b58585610d29565b91506110c18585610bc0565b90508082029250505092915050565b60086020528060005260406000206000915090508060000154908060010154908060020154908060030160009054906101000a900460ff16905084565b600060018081111561111b57fe5b82600181111561112757fe5b149050919050565b6000606060008060008060008060006111488b8b6113d4565b151561115357600080fd5b61115d8b8b610cf4565b15151561116957600080fd5b6111738b8b610beb565b9750875196506111838b8b6110a6565b9550868681151561119057fe5b049450600093505b8684101561121e5787848151811015156111ae57fe5b9060200190602002015192506111c58b8b85610f06565b91508190508073ffffffffffffffffffffffffffffffffffffffff166108fc869081150290604051600060405180830381858888f19350505050158015611210573d6000803e3d6000fd5b508380600101945050611198565b6001600660008d600181111561123057fe5b815260200190815260200160002060010160008c815260200190815260200160002060006101000a81548160ff0219169083151502179055507fda048bb591cf512fe11d5b66d83b0bbeed9ca4d855f6f5c362c3bb1285a55cf38b8b6040518083600181111561129c57fe5b60ff1681526020018281526020019250505060405180910390a160019850505050505050505092915050565b60006112d48484610cf4565b1515156112e057600080fd5b6112eb848484610c6b565b15156112f657600080fd5b60016006600086600181111561130857fe5b81526020019081526020016000206003016000858152602001908152602001600020600084815260200190815260200160002060006101000a81548160ff0219169083151502179055507fa81db86e93caa3332e3c8b539b9c7d5c7eead8f6b9fac0261ad3248aa8c5e6f48484846040518084600181111561138657fe5b60ff168152602001838152602001828152602001935050505060405180910390a1600190509392505050565b60008060018111156113c057fe5b8260018111156113cc57fe5b149050919050565b6000806113e184846114a8565b905080421191505092915050565b60606113fa83611527565b600201600083815260200190815260200160002080548060200260200160405190810160405280929190818152602001828054801561145857602002820191906000526020600020905b815481526020019060010190808311611444575b5050505050905092915050565b60076020528060005260406000206000915090508060000154908060010154908060020154908060030154908060040160009054906101000a900460ff16905085565b60006114b3836113b2565b156114d65760076000838152602001908152602001600020600101549050611503565b6114df8361110d565b156115025760086000838152602001908152602001600020600101549050611503565b5b92915050565b60066020528060005260406000206000915090508060000154905081565b60006006600083600181111561153957fe5b81526020019081526020016000209050919050565b6080604051908101604052806000815260200160008152602001600081526020016000600281111561157c57fe5b81525090565b60a06040519081016040528060008152602001600081526020016000815260200160008152602001600060028111156115b757fe5b815250905600a165627a7a72305820dc6bccc3627ecbb71f172906d94bbd64f894629a4caaef77299fec5bef59d3170029",
  "source": "pragma solidity ^0.4.24;\n\n// File: contracts/Chainlink.sol\ncontract Chainlinked {\n  using Chainlink for Chainlink.Request;\n  using SafeMath for uint256;\n\n  uint256 constant internal LINK = 10**18;\n  uint256 constant private AMOUNT_OVERRIDE = 0;\n  address constant private SENDER_OVERRIDE = 0x0;\n  uint256 constant private ARGS_VERSION = 1;\n  bytes32 constant private ENS_TOKEN_SUBNAME = keccak256(\"link\");\n  bytes32 constant private ENS_ORACLE_SUBNAME = keccak256(\"oracle\");\n\n  ENSInterface private ens;\n  bytes32 private ensNode;\n  LinkTokenInterface private link;\n  ChainlinkRequestInterface private oracle;\n  uint256 private requests = 1;\n  mapping(bytes32 => address) private pendingRequests;\n\n  event ChainlinkRequested(bytes32 indexed id);\n  event ChainlinkFulfilled(bytes32 indexed id);\n  event ChainlinkCancelled(bytes32 indexed id);\n\n  /**\n   * @notice Creates a request that can hold additional parameters\n   * @param _specId The Job Specification ID that the request will be created for\n   * @param _callbackAddress The callback address that the response will be sent to\n   * @param _callbackFunctionSignature The callback function signature to use for the callback address\n   * @return A Chainlink Request struct in memory\n   */\n  function newRequest(\n    bytes32 _specId,\n    address _callbackAddress,\n    bytes4 _callbackFunctionSignature\n  ) internal pure returns (Chainlink.Request memory) {\n    Chainlink.Request memory req;\n    return req.initialize(_specId, _callbackAddress, _callbackFunctionSignature);\n  }\n\n  /**\n   * @notice Creates a Chainlink request to the stored oracle address\n   * @dev Calls `chainlinkRequestTo` with the stored oracle address\n   * @param _req The initialized Chainlink Request\n   * @param _payment The amount of LINK to send for the request\n   * @return The request ID\n   */\n  function chainlinkRequest(Chainlink.Request memory _req, uint256 _payment)\n    internal\n    returns (bytes32)\n  {\n    return chainlinkRequestTo(oracle, _req, _payment);\n  }\n\n  /**\n   * @notice Creates a Chainlink request to the specified oracle address\n   * @dev Generates and stores a request ID, increments the local nonce, and uses `transferAndCall` to\n   * send LINK which creates a request on the target oracle contract.\n   * Emits ChainlinkRequested event.\n   * @param _oracle The address of the oracle for the request\n   * @param _req The initialized Chainlink Request\n   * @param _payment The amount of LINK to send for the request\n   * @return The request ID\n   */\n  function chainlinkRequestTo(address _oracle, Chainlink.Request memory _req, uint256 _payment)\n    internal\n    returns (bytes32 requestId)\n  {\n    requestId = keccak256(abi.encodePacked(this, requests));\n    _req.nonce = requests;\n    pendingRequests[requestId] = _oracle;\n    emit ChainlinkRequested(requestId);\n    require(link.transferAndCall(_oracle, _payment, encodeRequest(_req)), \"unable to transferAndCall to oracle\");\n    requests += 1;\n\n    return requestId;\n  }\n\n  /**\n   * @notice Allows a request to be cancelled if it has not been fulfilled\n   * @dev Requires keeping track of the expiration value emitted from the oracle contract.\n   * Deletes the request from the `pendingRequests` mapping.\n   * Emits ChainlinkCancelled event.\n   * @param _requestId The request ID\n   * @param _payment The amount of LINK sent for the request\n   * @param _callbackFunc The callback function specified for the request\n   * @param _expiration The time of the expiration for the request\n   */\n  function cancelChainlinkRequest(\n    bytes32 _requestId,\n    uint256 _payment,\n    bytes4 _callbackFunc,\n    uint256 _expiration\n  )\n    internal\n  {\n    ChainlinkRequestInterface requested = ChainlinkRequestInterface(pendingRequests[_requestId]);\n    delete pendingRequests[_requestId];\n    emit ChainlinkCancelled(_requestId);\n    requested.cancelOracleRequest(_requestId, _payment, _callbackFunc, _expiration);\n  }\n\n  /**\n   * @notice Sets the stored oracle address\n   * @param _oracle The address of the oracle contract\n   */\n  function setOracle(address _oracle) internal {\n    oracle = ChainlinkRequestInterface(_oracle);\n  }\n\n  /**\n   * @notice Sets the LINK token address\n   * @param _link The address of the LINK token contract\n   */\n  function setLinkToken(address _link) internal {\n    link = LinkTokenInterface(_link);\n  }\n\n  /**\n   * @notice Retrieves the stored address of the LINK token\n   * @return The address of the LINK token\n   */\n  function chainlinkToken()\n    internal\n    view\n    returns (address)\n  {\n    return address(link);\n  }\n\n  /**\n   * @notice Retrieves the stored address of the oracle contract\n   * @return The address of the oracle contract\n   */\n  function oracleAddress()\n    internal\n    view\n    returns (address)\n  {\n    return address(oracle);\n  }\n\n  /**\n   * @notice Allows for a request which was created on another contract to be fulfilled\n   * on this contract\n   * @param _oracle The address of the oracle contract that will fulfill the request\n   * @param _requestId The request ID used for the response\n   */\n  function addExternalRequest(address _oracle, bytes32 _requestId)\n    internal\n    notPendingRequest(_requestId)\n  {\n    pendingRequests[_requestId] = _oracle;\n  }\n \n  /**\n   * @notice Sets the stored oracle and LINK token contracts with the addresses resolved by ENS\n   * @dev Accounts for subnodes having different resolvers\n   * @param _ens The address of the ENS contract\n   * @param _node The ENS node hash\n   */\n  function setChainlinkWithENS(address _ens, bytes32 _node)\n    internal\n  {\n    ens = ENSInterface(_ens);\n    ensNode = _node;\n    bytes32 linkSubnode = keccak256(abi.encodePacked(ensNode, ENS_TOKEN_SUBNAME));\n    ENSResolver resolver = ENSResolver(ens.resolver(linkSubnode));\n    setLinkToken(resolver.addr(linkSubnode));\n    setOracleWithENS();\n  }\n\n  /**\n   * @notice Sets the stored oracle contract with the address resolved by ENS\n   * @dev This may be called on its own as long as `setChainlinkWithENS` has been called previously\n   */\n  function setOracleWithENS()\n    internal\n  {\n    bytes32 oracleSubnode = keccak256(abi.encodePacked(ensNode, ENS_ORACLE_SUBNAME));\n    ENSResolver resolver = ENSResolver(ens.resolver(oracleSubnode));\n    setOracle(resolver.addr(oracleSubnode));\n  }\n\n  /**\n   * @notice Encodes the request to be sent to the oracle contract\n   * @dev The Chainlink node expects values to be in order for the request to be picked up. Order of types\n   * will be validated in the oracle contract.\n   * @param _req The initialized Chainlink Request\n   * @return The bytes payload for the `transferAndCall` method\n   */\n  function encodeRequest(Chainlink.Request memory _req)\n    internal\n    view\n    returns (bytes memory)\n  {\n    return abi.encodeWithSelector(\n      oracle.oracleRequest.selector,\n      SENDER_OVERRIDE, // Sender value - overridden by onTokenTransfer by the requesting contract's address\n      AMOUNT_OVERRIDE, // Amount value - overridden by onTokenTransfer by the actual amount of LINK sent\n      _req.id,\n      _req.callbackAddress,\n      _req.callbackFunctionId,\n      _req.nonce,\n      ARGS_VERSION,\n      _req.buf.buf);\n  }\n\n  /**\n   * @notice Ensures that the fulfillment is valid for this contract\n   * @dev Use if the contract developer prefers methods instead of modifiers for validation\n   * @param _requestId The request ID for fulfillment\n   */\n  function fulfillChainlinkRequest(bytes32 _requestId)\n    internal\n    recordChainlinkFulfillment(_requestId)\n  {}\n\n  /**\n   * @dev Reverts if the sender is not the oracle of the request.\n   * Emits ChainlinkFulfilled event.\n   * @param _requestId The request ID for fulfillment\n   */\n  modifier recordChainlinkFulfillment(bytes32 _requestId) {\n    require(msg.sender == pendingRequests[_requestId], \"Source must be the oracle of the request\");\n    delete pendingRequests[_requestId];\n    emit ChainlinkFulfilled(_requestId);\n    _;\n  }\n\n  /**\n   * @dev Reverts if the request is already pending\n   * @param _requestId The request ID for fulfillment\n   */\n  modifier notPendingRequest(bytes32 _requestId) {\n    require(pendingRequests[_requestId] == address(0), \"Request is already pending\");\n    _;\n  }\n}\n\n\ncontract StravaChallengeHub is Chainlinked {\n    // Libraries\n\n    // Enums\n    // https://solidity.readthedocs.io/en/v0.5.4/types.html?highlight=enum%20argument#enums\n    enum ActivityType { Ride, Run, Swim }     // Strava activity type\n    enum ChallengeType { Segment, Distance }  // Type of challenge\n    \n    // Structs\n    struct SegmentChallenge {\n        uint entryFee;              // amount ether to enter the challenge\n        uint expireTime;            // datetime that challenge expires at (seconds)\n        uint timeToBeat;            // time to complete segment in (seconds)\n        uint segmentId;           // strava segment id\n        ActivityType activityType;  // ride / run / swim (as uint)\n    }\n    struct DistanceChallenge {\n        uint entryFee;              // amount ether to enter the challenge\n        uint expireTime;            // datetime that challenge expires at (seconds)\n        uint distance;              // distance to complete the challenge (feet)\n        ActivityType activityType;  // ride / run / swim (as uint)\n    }\n    struct ChallengeMetaData {\n        uint numChallenges;\n        mapping (uint => bool) settled;\n        mapping (uint => uint[]) athleteIds;\n        mapping (uint => mapping(uint => bool)) athleteSucceeded;\n        mapping (uint => mapping(uint => address)) athleteAddress;\n    }\n\n    // Storage vars\n    mapping (uint => ChallengeMetaData) public challengeManager;\n    mapping (uint => SegmentChallenge) public segmentChallengesById;\n    mapping (uint => DistanceChallenge) public distanceChallengesById;\n\n    // Events\n    event ChallengeIssued (ChallengeType _challengeType, uint _challengeId);\n    event ChallengeJoined (ChallengeType _challengeType, uint _challengeId, uint _athleteId, address _athleteAddress);\n    event ChallengeSettled (ChallengeType _challengeType, uint _challengeId);\n    event AthleteSucceeded (ChallengeType _challengeType, uint _challengeId, uint _athleteId);\n\n    // Pure / View functions\n    // ------------------------------------------------------\n    function _getChallengeMetaData(ChallengeType _challengeType) internal view returns (ChallengeMetaData storage) {\n        return challengeManager[uint(_challengeType)];\n    }\n    \n    function isChallengeSettled(ChallengeType _challengeType, uint _challengeId) public view returns (bool) {\n        return _getChallengeMetaData(_challengeType).settled[_challengeId];\n    }\n    \n    function isAthleteRegistered(ChallengeType _challengeType, uint _challengeId, uint _athleteId) public view returns (bool) {\n        return _getChallengeMetaData(_challengeType).athleteAddress[_challengeId][_athleteId] != address(0x0);\n    }\n\n    function isAthleteSuccessful(ChallengeType _challengeType, uint _challengeId, uint _athleteId) public view returns (bool) {\n        return _getChallengeMetaData(_challengeType).athleteSucceeded[_challengeId][_athleteId];\n    }\n    \n    function getNumAthletes(ChallengeType _challengeType, uint _challengeId) public view returns (uint) {\n        return _getChallengeMetaData(_challengeType).athleteIds[_challengeId].length;\n    }\n    \n    function getAthleteIdAtIndex(ChallengeType _challengeType, uint _challengeId, uint index) public view returns (uint) {\n        return _getChallengeMetaData(_challengeType).athleteIds[_challengeId][index];\n    }\n    \n    function getAthleteAddress(ChallengeType _challengeType, uint _challengeId, uint _athleteId) public view returns (address paybale) {\n        return _getChallengeMetaData(_challengeType).athleteAddress[_challengeId][_athleteId];\n    }\n\n    function isSegmentChallenge(ChallengeType _challengeType) public pure returns (bool) {\n        return _challengeType == ChallengeType.Segment;\n    }\n    \n    function isDistanceChallenge(ChallengeType _challengeType) public pure returns (bool) {\n        return _challengeType == ChallengeType.Distance;\n    }\n\n    function getChallengeExpireTime(ChallengeType _challengeType, uint _challengeId) public view returns (uint) {\n        if (isSegmentChallenge(_challengeType))\n            return segmentChallengesById[_challengeId].expireTime;\n        if (isDistanceChallenge(_challengeType))\n            return distanceChallengesById[_challengeId].expireTime;\n    }\n    \n    function getChallengeEntryFee(ChallengeType _challengeType, uint _challengeId) public view returns (uint) {\n        if (isSegmentChallenge(_challengeType))\n            return segmentChallengesById[_challengeId].entryFee;\n        if (isDistanceChallenge(_challengeType))\n            return distanceChallengesById[_challengeId].entryFee;\n    }\n    \n    function isChallengeExpired(ChallengeType _challengeType, uint _challengeId) public view returns (bool) {\n        uint expireTime = getChallengeExpireTime(_challengeType, _challengeId);\n        return now > expireTime;\n    }\n\n    function getAthleteIds(ChallengeType _challengeType, uint _challengeId) public view returns (uint[] memory) {\n        return _getChallengeMetaData(_challengeType).athleteIds[_challengeId];\n    }\n    \n    function getSuccessfulAthleteIds(ChallengeType _challengeType, uint _challengeId) public view returns (uint[] memory) {\n        uint[] memory successfulAthleteIds;\n        uint numAthletes = getNumAthletes(_challengeType, _challengeId);\n        uint resultIndex = 0;\n        \n        // iterate over athlete ids, push successful ones to array\n        for (uint index; index < numAthletes; index++) {\n            uint _athleteId = getAthleteIdAtIndex(_challengeType, _challengeId, index);\n            if (isAthleteSuccessful(_challengeType, _challengeId, _athleteId)) {\n                successfulAthleteIds[resultIndex] = _athleteId;\n                resultIndex++;\n            }\n        }\n        \n        return successfulAthleteIds;\n    }\n    \n    function getTotalChallengeFunds(ChallengeType _challengeType, uint _challengeId) public view returns (uint) {\n        uint entryFee = getChallengeEntryFee(_challengeType, _challengeId);\n        uint numAthletes = getNumAthletes(_challengeType, _challengeId);\n        return entryFee * numAthletes;\n    }\n    \n    // Destructive functions\n    // ------------------------------------------------------\n    function issueSegmentChallenge(\n        uint _entryFee,\n        uint _expireTime,\n        uint _timeToBeat,\n        uint _segmentId,\n        ActivityType _activityType\n    ) public returns (uint) {\n        // initialize SegmentChallenge struct\n        SegmentChallenge memory issuedSegmentChallenge = SegmentChallenge({\n            entryFee: _entryFee,\n            expireTime: _expireTime,\n            timeToBeat: _timeToBeat,\n            segmentId: _segmentId,\n            activityType: _activityType\n        });\n        \n        // Get the challenge id from the number of challenges\n        uint _challengeId = _getChallengeMetaData(ChallengeType.Segment).numChallenges;\n        \n        // Add struct to challenges mapping\n        segmentChallengesById[_challengeId] = issuedSegmentChallenge;\n        \n        // Increment the counter\n        challengeManager[uint(ChallengeType.Segment)].numChallenges++;\n        \n        // Log ChallengeIssued event\n        emit ChallengeIssued(ChallengeType.Segment, _challengeId);\n        \n        // return challengeId\n        return _challengeId;\n    }\n    \n    function issueDistanceChallenge(\n        uint _entryFee,\n        uint _expireTime,\n        uint _distance,\n        ActivityType _activityType\n    ) public returns (uint) {\n        // initialize DistanceChallenge struct\n        DistanceChallenge memory issuedDistanceChallenge = DistanceChallenge({\n            entryFee: _entryFee,\n            expireTime: _expireTime,\n            distance: _distance,\n            activityType: _activityType\n        });\n        \n        // Get the challenge id from the number of challenges\n        uint _challengeId = _getChallengeMetaData(ChallengeType.Distance).numChallenges;\n        \n        // Add struct to challenges mapping\n        distanceChallengesById[_challengeId] = issuedDistanceChallenge;\n        \n        // Increment the counter\n        challengeManager[uint(ChallengeType.Distance)].numChallenges++;\n        \n        // Log ChallengeIssued event\n        emit ChallengeIssued(ChallengeType.Distance, _challengeId);\n        \n        // return challengeId\n        return _challengeId;\n    }\n    \n\n    function joinChallenge (\n        ChallengeType _challengeType,\n        uint _challengeId,\n        uint _athleteId\n    ) public payable returns (bool) {\n        // make sure challenge is not expired\n        require(!isChallengeExpired(_challengeType, _challengeId));\n        \n        // make sure athlete hasn't joined the challenge already\n        require(!isAthleteRegistered(_challengeType, _challengeId, _athleteId), \"Athlete is already registered\");\n\n        // make sure sender is paying their full entry fee\n        uint entryFee = getChallengeEntryFee(_challengeType, _challengeId);\n        require(msg.value >= entryFee, \"Entry fee (ether value) is insufficient\");\n    \n        // flag athelete as registered for challenge\n        challengeManager[uint(_challengeType)].athleteAddress[_challengeId][_athleteId] = msg.sender;\n\n        // Log ChallengeJoined event\n        emit ChallengeJoined(_challengeType, _challengeId, _athleteId, msg.sender);\n        \n        return true;\n    }\n    \n    // TODO: Permissions\n    function setAthleteSucceeded(\n        ChallengeType _challengeType,\n        uint _challengeId,\n        uint _athleteId\n    ) external returns (bool) {\n        // check that challenge is not settled and the athlete is registered\n        require(!isChallengeSettled(_challengeType, _challengeId));\n        require(isAthleteRegistered(_challengeType, _challengeId, _athleteId));\n        \n        // flag athlete as successful\n        challengeManager[uint(_challengeType)].athleteSucceeded[_challengeId][_athleteId] = true;\n        \n        // log AthleteSuceeded event\n        emit AthleteSucceeded(_challengeType, _challengeId, _athleteId);\n        \n        return true;\n    }\n    \n    // TODO: Permissions\n    function settleChallenge (\n        ChallengeType _challengeType,\n        uint _challengeId\n    ) external returns (bool) {\n        // make sure challenge is expired and not settled\n        require(isChallengeExpired(_challengeType, _challengeId));\n        require(!isChallengeSettled(_challengeType, _challengeId));\n        \n        uint[] memory successfulAthleteIds = getSuccessfulAthleteIds(_challengeType, _challengeId);\n        uint numAthletesSucceeded = successfulAthleteIds.length;\n        uint totalChallengeFunds = getTotalChallengeFunds(_challengeType, _challengeId);\n        uint rewardValue = totalChallengeFunds / numAthletesSucceeded;\n        \n        for (uint index = 0; index < numAthletesSucceeded; index++) {\n            uint _athleteId = successfulAthleteIds[index];\n            address _athleteAddress = getAthleteAddress(_challengeType, _challengeId, _athleteId);\n            address recipient = address(uint160(_athleteAddress));\n            recipient.transfer(rewardValue);\n        }\n        \n        // flag challenge as settled\n        challengeManager[uint(_challengeType)].settled[_challengeId] = true;\n        \n        // emit ChallengeSettled event\n        emit ChallengeSettled(_challengeType, _challengeId);\n\n        return true;\n    }\n}\n\n// File: contracts/CBOR.sol\nlibrary CBOR {\n    using Buffer for Buffer.buffer;\n\n    uint8 private constant MAJOR_TYPE_INT = 0;\n    uint8 private constant MAJOR_TYPE_NEGATIVE_INT = 1;\n    uint8 private constant MAJOR_TYPE_BYTES = 2;\n    uint8 private constant MAJOR_TYPE_STRING = 3;\n    uint8 private constant MAJOR_TYPE_ARRAY = 4;\n    uint8 private constant MAJOR_TYPE_MAP = 5;\n    uint8 private constant MAJOR_TYPE_CONTENT_FREE = 7;\n\n    function encodeType(Buffer.buffer memory buf, uint8 major, uint value) private pure {\n        if(value <= 23) {\n            buf.append(uint8((major << 5) | value));\n        } else if(value <= 0xFF) {\n            buf.append(uint8((major << 5) | 24));\n            buf.appendInt(value, 1);\n        } else if(value <= 0xFFFF) {\n            buf.append(uint8((major << 5) | 25));\n            buf.appendInt(value, 2);\n        } else if(value <= 0xFFFFFFFF) {\n            buf.append(uint8((major << 5) | 26));\n            buf.appendInt(value, 4);\n        } else if(value <= 0xFFFFFFFFFFFFFFFF) {\n            buf.append(uint8((major << 5) | 27));\n            buf.appendInt(value, 8);\n        }\n    }\n\n    function encodeIndefiniteLengthType(Buffer.buffer memory buf, uint8 major) private pure {\n        buf.append(uint8((major << 5) | 31));\n    }\n\n    function encodeUInt(Buffer.buffer memory buf, uint value) internal pure {\n        encodeType(buf, MAJOR_TYPE_INT, value);\n    }\n\n    function encodeInt(Buffer.buffer memory buf, int value) internal pure {\n        if(value >= 0) {\n            encodeType(buf, MAJOR_TYPE_INT, uint(value));\n        } else {\n            encodeType(buf, MAJOR_TYPE_NEGATIVE_INT, uint(-1 - value));\n        }\n    }\n\n    function encodeBytes(Buffer.buffer memory buf, bytes value) internal pure {\n        encodeType(buf, MAJOR_TYPE_BYTES, value.length);\n        buf.append(value);\n    }\n\n    function encodeString(Buffer.buffer memory buf, string value) internal pure {\n        encodeType(buf, MAJOR_TYPE_STRING, bytes(value).length);\n        buf.append(bytes(value));\n    }\n\n    function startArray(Buffer.buffer memory buf) internal pure {\n        encodeIndefiniteLengthType(buf, MAJOR_TYPE_ARRAY);\n    }\n\n    function startMap(Buffer.buffer memory buf) internal pure {\n        encodeIndefiniteLengthType(buf, MAJOR_TYPE_MAP);\n    }\n\n    function endSequence(Buffer.buffer memory buf) internal pure {\n        encodeIndefiniteLengthType(buf, MAJOR_TYPE_CONTENT_FREE);\n    }\n}\n\n// File: contracts/Buffer.sol\nlibrary Buffer {\n    struct buffer {\n        bytes buf;\n        uint capacity;\n    }\n\n    uint constant capacityMask = (2 ** 256) - 32; // ~0x1f\n\n    function init(buffer memory buf, uint _capacity) internal pure {\n        uint capacity = max(32, (_capacity + 0x1f) & capacityMask);\n        // Allocate space for the buffer data\n        buf.capacity = capacity;\n        assembly {\n            let ptr := mload(0x40)\n            mstore(buf, ptr)\n            mstore(ptr, 0)\n            mstore(0x40, add(ptr, capacity))\n        }\n    }\n\n    function resize(buffer memory buf, uint capacity) private pure {\n        bytes memory oldbuf = buf.buf;\n        init(buf, capacity);\n        append(buf, oldbuf);\n    }\n\n    function max(uint a, uint b) private pure returns(uint) {\n        if(a > b) {\n            return a;\n        }\n        return b;\n    }\n\n    /**\n     * @dev Appends a byte array to the end of the buffer. Resizes if doing so\n     * would exceed the capacity of the buffer.\n     * @param buf The buffer to append to.\n     * @param data The data to append.\n     * @return The original buffer.\n     */\n    function append(buffer memory buf, bytes data) internal pure returns(buffer memory) {\n        if(data.length + buf.buf.length > buf.capacity) {\n            resize(buf, max(buf.capacity, data.length) * 2);\n        }\n\n        uint dest;\n        uint src;\n        uint len = data.length;\n        assembly {\n            // Memory address of the buffer data\n            let bufptr := mload(buf)\n            // Length of existing buffer data\n            let buflen := mload(bufptr)\n            // Start address = buffer address + buffer length + sizeof(buffer length)\n            dest := add(add(bufptr, buflen), 32)\n            // Update buffer length\n            mstore(bufptr, add(buflen, mload(data)))\n            src := add(data, 32)\n        }\n\n        // Copy word-length chunks while possible\n        for(; len >= 32; len -= 32) {\n            assembly {\n                mstore(dest, mload(src))\n            }\n            dest += 32;\n            src += 32;\n        }\n\n        // Copy remaining bytes\n        uint mask = 256 ** (32 - len) - 1;\n        assembly {\n            let srcpart := and(mload(src), not(mask))\n            let destpart := and(mload(dest), mask)\n            mstore(dest, or(destpart, srcpart))\n        }\n\n        return buf;\n    }\n\n    /**\n     * @dev Appends a byte to the end of the buffer. Resizes if doing so would\n     * exceed the capacity of the buffer.\n     * @param buf The buffer to append to.\n     * @param data The data to append.\n     * @return The original buffer.\n     */\n    function append(buffer memory buf, uint8 data) internal pure {\n        if(buf.buf.length + 1 > buf.capacity) {\n            resize(buf, buf.capacity * 2);\n        }\n\n        assembly {\n            // Memory address of the buffer data\n            let bufptr := mload(buf)\n            // Length of existing buffer data\n            let buflen := mload(bufptr)\n            // Address = buffer address + buffer length + sizeof(buffer length)\n            let dest := add(add(bufptr, buflen), 32)\n            mstore8(dest, data)\n            // Update buffer length\n            mstore(bufptr, add(buflen, 1))\n        }\n    }\n\n    /**\n     * @dev Appends a byte to the end of the buffer. Resizes if doing so would\n     * exceed the capacity of the buffer.\n     * @param buf The buffer to append to.\n     * @param data The data to append.\n     * @return The original buffer.\n     */\n    function appendInt(buffer memory buf, uint data, uint len) internal pure returns(buffer memory) {\n        if(len + buf.buf.length > buf.capacity) {\n            resize(buf, max(buf.capacity, len) * 2);\n        }\n\n        uint mask = 256 ** len - 1;\n        assembly {\n            // Memory address of the buffer data\n            let bufptr := mload(buf)\n            // Length of existing buffer data\n            let buflen := mload(bufptr)\n            // Address = buffer address + buffer length + len\n            let dest := add(add(bufptr, buflen), len)\n            mstore(dest, or(and(mload(dest), not(mask)), data))\n            // Update buffer length\n            mstore(bufptr, add(buflen, len))\n        }\n        return buf;\n    }\n}\n\n/**\n * @title Library for common Chainlink functions\n * @dev Uses imported CBOR library for encoding to buffer\n */\nlibrary Chainlink {\n  uint256 internal constant defaultBufferSize = 256;\n\n  using CBOR for Buffer.buffer;\n\n  struct Request {\n    bytes32 id;\n    address callbackAddress;\n    bytes4 callbackFunctionId;\n    uint256 nonce;\n    Buffer.buffer buf;\n  }\n\n  /**\n   * @notice Initializes a Chainlink request\n   * @dev Sets the ID, callback address, and callback function signature on the request\n   * @param self The uninitialized request\n   * @param _id The Job Specification ID\n   * @param _callbackAddress The callback address\n   * @param _callbackFunction The callback function signature\n   * @return The initialized request\n   */\n  function initialize(\n    Request memory self,\n    bytes32 _id,\n    address _callbackAddress,\n    bytes4 _callbackFunction\n  ) internal pure returns (Chainlink.Request memory) {\n    Buffer.init(self.buf, defaultBufferSize);\n    self.id = _id;\n    self.callbackAddress = _callbackAddress;\n    self.callbackFunctionId = _callbackFunction;\n    return self;\n  }\n\n  /**\n   * @notice Sets the data for the buffer without encoding CBOR on-chain\n   * @dev CBOR can be closed with curly-brackets {} or they can be left off\n   * @param self The initialized request\n   * @param _data The CBOR data\n   */\n  function setBuffer(Request memory self, bytes _data)\n    internal pure\n  {\n    Buffer.init(self.buf, _data.length);\n    Buffer.append(self.buf, _data);\n  }\n\n  /**\n   * @notice Adds a string value to the request with a given key name\n   * @param self The initialized request\n   * @param _key The name of the key\n   * @param _value The string value to add\n   */\n  function add(Request memory self, string _key, string _value)\n    internal pure\n  {\n    self.buf.encodeString(_key);\n    self.buf.encodeString(_value);\n  }\n\n  /**\n   * @notice Adds a bytes value to the request with a given key name\n   * @param self The initialized request\n   * @param _key The name of the key\n   * @param _value The bytes value to add\n   */\n  function addBytes(Request memory self, string _key, bytes _value)\n    internal pure\n  {\n    self.buf.encodeString(_key);\n    self.buf.encodeBytes(_value);\n  }\n\n  /**\n   * @notice Adds a int256 value to the request with a given key name\n   * @param self The initialized request\n   * @param _key The name of the key\n   * @param _value The int256 value to add\n   */\n  function addInt(Request memory self, string _key, int256 _value)\n    internal pure\n  {\n    self.buf.encodeString(_key);\n    self.buf.encodeInt(_value);\n  }\n\n  /**\n   * @notice Adds a uint256 value to the request with a given key name\n   * @param self The initialized request\n   * @param _key The name of the key\n   * @param _value The uint256 value to add\n   */\n  function addUint(Request memory self, string _key, uint256 _value)\n    internal pure\n  {\n    self.buf.encodeString(_key);\n    self.buf.encodeUInt(_value);\n  }\n\n  /**\n   * @notice Adds an array of strings to the request with a given key name\n   * @param self The initialized request\n   * @param _key The name of the key\n   * @param _values The array of string values to add\n   */\n  function addStringArray(Request memory self, string _key, string[] memory _values)\n    internal pure\n  {\n    self.buf.encodeString(_key);\n    self.buf.startArray();\n    for (uint256 i = 0; i < _values.length; i++) {\n      self.buf.encodeString(_values[i]);\n    }\n    self.buf.endSequence();\n  }\n}\n\n// File: contracts/ENSResolver.sol\n\ncontract ENSResolver {\n  function addr(bytes32 node) public view returns (address);\n}\n\n// File: contracts/interfaces/ENSInterface.sol\n\n\ninterface ENSInterface {\n\n    // Logged when the owner of a node assigns a new owner to a subnode.\n    event NewOwner(bytes32 indexed node, bytes32 indexed label, address owner);\n\n    // Logged when the owner of a node transfers ownership to a new account.\n    event Transfer(bytes32 indexed node, address owner);\n\n    // Logged when the resolver for a node changes.\n    event NewResolver(bytes32 indexed node, address resolver);\n\n    // Logged when the TTL of a node changes\n    event NewTTL(bytes32 indexed node, uint64 ttl);\n\n\n    function setSubnodeOwner(bytes32 node, bytes32 label, address owner) external;\n    function setResolver(bytes32 node, address resolver) external;\n    function setOwner(bytes32 node, address owner) external;\n    function setTTL(bytes32 node, uint64 ttl) external;\n    function owner(bytes32 node) external view returns (address);\n    function resolver(bytes32 node) external view returns (address);\n    function ttl(bytes32 node) external view returns (uint64);\n\n}\n\n// File: contracts/interfaces/LinkTokenInterface.sol\n\n\ninterface LinkTokenInterface {\n  function allowance(address owner, address spender) external returns (bool success);\n  function approve(address spender, uint256 value) external returns (bool success);\n  function balanceOf(address owner) external returns (uint256 balance);\n  function decimals() external returns (uint8 decimalPlaces);\n  function decreaseApproval(address spender, uint256 addedValue) external returns (bool success);\n  function increaseApproval(address spender, uint256 subtractedValue) external;\n  function name() external returns (string tokenName);\n  function symbol() external returns (string tokenSymbol);\n  function totalSupply() external returns (uint256 totalTokensIssued);\n  function transfer(address to, uint256 value) external returns (bool success);\n  function transferAndCall(address to, uint256 value, bytes data) external returns (bool success);\n  function transferFrom(address from, address to, uint256 value) external returns (bool success);\n}\n\n// File: contracts/interfaces/ChainlinkRequestInterface.sol\n\ninterface ChainlinkRequestInterface {\n  function oracleRequest(\n    address sender,\n    uint256 payment,\n    bytes32 id,\n    address callbackAddress,\n    bytes4 callbackFunctionId,\n    uint256 nonce,\n    uint256 version,\n    bytes data\n  ) external;\n\n  function cancelOracleRequest(\n    bytes32 requestId,\n    uint256 payment,\n    bytes4 callbackFunctionId,\n    uint256 expiration\n  ) external;\n}\n\n// File: contracts/SafeMath.sol\n\n/**\n * @title SafeMath\n * @dev Unsigned math operations with safety checks that revert on error\n */\nlibrary SafeMath {\n    /**\n     * @dev Multiplies two unsigned integers, reverts on overflow.\n     */\n    function mul(uint256 a, uint256 b) internal pure returns (uint256) {\n        // Gas optimization: this is cheaper than requiring 'a' not being zero, but the\n        // benefit is lost if 'b' is also tested.\n        // See: https://github.com/OpenZeppelin/openzeppelin-solidity/pull/522\n        if (a == 0) {\n            return 0;\n        }\n\n        uint256 c = a * b;\n        require(c / a == b);\n\n        return c;\n    }\n\n    /**\n     * @dev Integer division of two unsigned integers truncating the quotient, reverts on division by zero.\n     */\n    function div(uint256 a, uint256 b) internal pure returns (uint256) {\n        // Solidity only automatically asserts when dividing by 0\n        require(b > 0);\n        uint256 c = a / b;\n        // assert(a == b * c + a % b); // There is no case in which this doesn't hold\n\n        return c;\n    }\n\n    /**\n     * @dev Subtracts two unsigned integers, reverts on overflow (i.e. if subtrahend is greater than minuend).\n     */\n    function sub(uint256 a, uint256 b) internal pure returns (uint256) {\n        require(b <= a);\n        uint256 c = a - b;\n\n        return c;\n    }\n\n    /**\n     * @dev Adds two unsigned integers, reverts on overflow.\n     */\n    function add(uint256 a, uint256 b) internal pure returns (uint256) {\n        uint256 c = a + b;\n        require(c >= a);\n\n        return c;\n    }\n\n    /**\n     * @dev Divides two unsigned integers and returns the remainder (unsigned integer modulo),\n     * reverts when dividing by zero.\n     */\n    function mod(uint256 a, uint256 b) internal pure returns (uint256) {\n        require(b != 0);\n        return a % b;\n    }\n}\n\n// File: contracts/Chainlinked.sol\n\n/**\n * @title The Chainlinked contract\n * @notice Contract writers can inherit this contract in order to create requests for the\n * Chainlink network\n */\n",
  "sourcePath": "/Users/rongierlach/Development/gran-fondo/contracts/FlattenedStravaChallengeHub.sol",
  "compiler": {
    "name": "solc",
    "version": "0.4.24+commit.e67f0147.Emscripten.clang"
  },
  "schemaVersion": "3.0.2",
  "updatedAt": "2019-02-17T07:52:52.071Z",
  "devdoc": {
    "methods": {}
  },
  "userdoc": {
    "methods": {}
  }
}