{
  "contractName": "StravaChallengeHub",
  "abi": [
    {
      "constant": true,
      "inputs": [
        {
          "name": "",
          "type": "uint256"
        }
      ],
      "name": "distanceChallengesById",
      "outputs": [
        {
          "name": "entryFee",
          "type": "uint256"
        },
        {
          "name": "expireTime",
          "type": "uint256"
        },
        {
          "name": "distance",
          "type": "uint256"
        },
        {
          "name": "activityType",
          "type": "uint8"
        }
      ],
      "payable": false,
      "stateMutability": "view",
      "type": "function"
    },
    {
      "constant": true,
      "inputs": [
        {
          "name": "",
          "type": "uint256"
        }
      ],
      "name": "segmentChallengesById",
      "outputs": [
        {
          "name": "entryFee",
          "type": "uint256"
        },
        {
          "name": "expireTime",
          "type": "uint256"
        },
        {
          "name": "timeToBeat",
          "type": "uint256"
        },
        {
          "name": "segmentId",
          "type": "uint256"
        },
        {
          "name": "activityType",
          "type": "uint8"
        }
      ],
      "payable": false,
      "stateMutability": "view",
      "type": "function"
    },
    {
      "constant": true,
      "inputs": [
        {
          "name": "",
          "type": "uint256"
        }
      ],
      "name": "challengeManager",
      "outputs": [
        {
          "name": "numChallenges",
          "type": "uint256"
        }
      ],
      "payable": false,
      "stateMutability": "view",
      "type": "function"
    },
    {
      "anonymous": false,
      "inputs": [
        {
          "indexed": false,
          "name": "_challengeType",
          "type": "uint8"
        },
        {
          "indexed": false,
          "name": "_challengeId",
          "type": "uint256"
        }
      ],
      "name": "ChallengeIssued",
      "type": "event"
    },
    {
      "anonymous": false,
      "inputs": [
        {
          "indexed": false,
          "name": "_challengeType",
          "type": "uint8"
        },
        {
          "indexed": false,
          "name": "_challengeId",
          "type": "uint256"
        },
        {
          "indexed": false,
          "name": "_athleteId",
          "type": "uint256"
        },
        {
          "indexed": false,
          "name": "_athleteAddress",
          "type": "address"
        }
      ],
      "name": "ChallengeJoined",
      "type": "event"
    },
    {
      "anonymous": false,
      "inputs": [
        {
          "indexed": false,
          "name": "_challengeType",
          "type": "uint8"
        },
        {
          "indexed": false,
          "name": "_challengeId",
          "type": "uint256"
        }
      ],
      "name": "ChallengeSettled",
      "type": "event"
    },
    {
      "anonymous": false,
      "inputs": [
        {
          "indexed": false,
          "name": "_challengeType",
          "type": "uint8"
        },
        {
          "indexed": false,
          "name": "_challengeId",
          "type": "uint256"
        },
        {
          "indexed": false,
          "name": "_athleteId",
          "type": "uint256"
        }
      ],
      "name": "AthleteSucceeded",
      "type": "event"
    },
    {
      "constant": true,
      "inputs": [
        {
          "name": "_challengeType",
          "type": "uint8"
        },
        {
          "name": "_challengeId",
          "type": "uint256"
        }
      ],
      "name": "isChallengeSettled",
      "outputs": [
        {
          "name": "",
          "type": "bool"
        }
      ],
      "payable": false,
      "stateMutability": "view",
      "type": "function"
    },
    {
      "constant": true,
      "inputs": [
        {
          "name": "_challengeType",
          "type": "uint8"
        },
        {
          "name": "_challengeId",
          "type": "uint256"
        },
        {
          "name": "_athleteId",
          "type": "uint256"
        }
      ],
      "name": "isAthleteRegistered",
      "outputs": [
        {
          "name": "",
          "type": "bool"
        }
      ],
      "payable": false,
      "stateMutability": "view",
      "type": "function"
    },
    {
      "constant": true,
      "inputs": [
        {
          "name": "_challengeType",
          "type": "uint8"
        },
        {
          "name": "_challengeId",
          "type": "uint256"
        },
        {
          "name": "_athleteId",
          "type": "uint256"
        }
      ],
      "name": "isAthleteSuccessful",
      "outputs": [
        {
          "name": "",
          "type": "bool"
        }
      ],
      "payable": false,
      "stateMutability": "view",
      "type": "function"
    },
    {
      "constant": true,
      "inputs": [
        {
          "name": "_challengeType",
          "type": "uint8"
        },
        {
          "name": "_challengeId",
          "type": "uint256"
        }
      ],
      "name": "getNumAthletes",
      "outputs": [
        {
          "name": "",
          "type": "uint256"
        }
      ],
      "payable": false,
      "stateMutability": "view",
      "type": "function"
    },
    {
      "constant": true,
      "inputs": [
        {
          "name": "_challengeType",
          "type": "uint8"
        },
        {
          "name": "_challengeId",
          "type": "uint256"
        },
        {
          "name": "index",
          "type": "uint256"
        }
      ],
      "name": "getAthleteIdAtIndex",
      "outputs": [
        {
          "name": "",
          "type": "uint256"
        }
      ],
      "payable": false,
      "stateMutability": "view",
      "type": "function"
    },
    {
      "constant": true,
      "inputs": [
        {
          "name": "_challengeType",
          "type": "uint8"
        },
        {
          "name": "_challengeId",
          "type": "uint256"
        },
        {
          "name": "_athleteId",
          "type": "uint256"
        }
      ],
      "name": "getAthleteAddress",
      "outputs": [
        {
          "name": "paybale",
          "type": "address"
        }
      ],
      "payable": false,
      "stateMutability": "view",
      "type": "function"
    },
    {
      "constant": true,
      "inputs": [
        {
          "name": "_challengeType",
          "type": "uint8"
        }
      ],
      "name": "isSegmentChallenge",
      "outputs": [
        {
          "name": "",
          "type": "bool"
        }
      ],
      "payable": false,
      "stateMutability": "pure",
      "type": "function"
    },
    {
      "constant": true,
      "inputs": [
        {
          "name": "_challengeType",
          "type": "uint8"
        }
      ],
      "name": "isDistanceChallenge",
      "outputs": [
        {
          "name": "",
          "type": "bool"
        }
      ],
      "payable": false,
      "stateMutability": "pure",
      "type": "function"
    },
    {
      "constant": true,
      "inputs": [
        {
          "name": "_challengeType",
          "type": "uint8"
        },
        {
          "name": "_challengeId",
          "type": "uint256"
        }
      ],
      "name": "getChallengeExpireTime",
      "outputs": [
        {
          "name": "",
          "type": "uint256"
        }
      ],
      "payable": false,
      "stateMutability": "view",
      "type": "function"
    },
    {
      "constant": true,
      "inputs": [
        {
          "name": "_challengeType",
          "type": "uint8"
        },
        {
          "name": "_challengeId",
          "type": "uint256"
        }
      ],
      "name": "getChallengeEntryFee",
      "outputs": [
        {
          "name": "",
          "type": "uint256"
        }
      ],
      "payable": false,
      "stateMutability": "view",
      "type": "function"
    },
    {
      "constant": true,
      "inputs": [
        {
          "name": "_challengeType",
          "type": "uint8"
        },
        {
          "name": "_challengeId",
          "type": "uint256"
        }
      ],
      "name": "isChallengeExpired",
      "outputs": [
        {
          "name": "",
          "type": "bool"
        }
      ],
      "payable": false,
      "stateMutability": "view",
      "type": "function"
    },
    {
      "constant": true,
      "inputs": [
        {
          "name": "_challengeType",
          "type": "uint8"
        },
        {
          "name": "_challengeId",
          "type": "uint256"
        }
      ],
      "name": "getAthleteIds",
      "outputs": [
        {
          "name": "",
          "type": "uint256[]"
        }
      ],
      "payable": false,
      "stateMutability": "view",
      "type": "function"
    },
    {
      "constant": true,
      "inputs": [
        {
          "name": "_challengeType",
          "type": "uint8"
        },
        {
          "name": "_challengeId",
          "type": "uint256"
        }
      ],
      "name": "getSuccessfulAthleteIds",
      "outputs": [
        {
          "name": "",
          "type": "uint256[]"
        }
      ],
      "payable": false,
      "stateMutability": "view",
      "type": "function"
    },
    {
      "constant": true,
      "inputs": [
        {
          "name": "_challengeType",
          "type": "uint8"
        },
        {
          "name": "_challengeId",
          "type": "uint256"
        }
      ],
      "name": "getTotalChallengeFunds",
      "outputs": [
        {
          "name": "",
          "type": "uint256"
        }
      ],
      "payable": false,
      "stateMutability": "view",
      "type": "function"
    },
    {
      "constant": false,
      "inputs": [
        {
          "name": "_entryFee",
          "type": "uint256"
        },
        {
          "name": "_expireTime",
          "type": "uint256"
        },
        {
          "name": "_timeToBeat",
          "type": "uint256"
        },
        {
          "name": "_segmentId",
          "type": "uint256"
        },
        {
          "name": "_activityType",
          "type": "uint8"
        }
      ],
      "name": "issueSegmentChallenge",
      "outputs": [
        {
          "name": "",
          "type": "uint256"
        }
      ],
      "payable": false,
      "stateMutability": "nonpayable",
      "type": "function"
    },
    {
      "constant": false,
      "inputs": [
        {
          "name": "_entryFee",
          "type": "uint256"
        },
        {
          "name": "_expireTime",
          "type": "uint256"
        },
        {
          "name": "_distance",
          "type": "uint256"
        },
        {
          "name": "_activityType",
          "type": "uint8"
        }
      ],
      "name": "issueDistanceChallenge",
      "outputs": [
        {
          "name": "",
          "type": "uint256"
        }
      ],
      "payable": false,
      "stateMutability": "nonpayable",
      "type": "function"
    },
    {
      "constant": false,
      "inputs": [
        {
          "name": "_challengeType",
          "type": "uint8"
        },
        {
          "name": "_challengeId",
          "type": "uint256"
        },
        {
          "name": "_athleteId",
          "type": "uint256"
        }
      ],
      "name": "joinChallenge",
      "outputs": [
        {
          "name": "",
          "type": "bool"
        }
      ],
      "payable": true,
      "stateMutability": "payable",
      "type": "function"
    },
    {
      "constant": false,
      "inputs": [
        {
          "name": "_challengeType",
          "type": "uint8"
        },
        {
          "name": "_challengeId",
          "type": "uint256"
        },
        {
          "name": "_athleteId",
          "type": "uint256"
        }
      ],
      "name": "setAthleteSucceeded",
      "outputs": [
        {
          "name": "",
          "type": "bool"
        }
      ],
      "payable": false,
      "stateMutability": "nonpayable",
      "type": "function"
    },
    {
      "constant": false,
      "inputs": [
        {
          "name": "_challengeType",
          "type": "uint8"
        },
        {
          "name": "_challengeId",
          "type": "uint256"
        }
      ],
      "name": "settleChallenge",
      "outputs": [
        {
          "name": "",
          "type": "bool"
        }
      ],
      "payable": false,
      "stateMutability": "nonpayable",
      "type": "function"
    }
  ],
  "bytecode": "0x608060405234801561001057600080fd5b506115e3806100206000396000f300608060405260043610610128576000357c0100000000000000000000000000000000000000000000000000000000900463ffffffff16806309308e0b1461012d5780630bf21470146101855780630e624318146101d45780631854d10b146102225780631a0e39a5146102b1578063497377bf1461030d5780636f83cc081461035f57806387cfea7f146103ad578063958f21c4146104095780639cedaa9f1461046b578063a02ccf80146104ef578063acc8d3c41461055b578063af315109146105a9578063b0c7516f1461060d578063b25752b614610655578063c1089d63146106a7578063d261417614610703578063e45ed3f41461074b578063e89998181461079d578063f3e921081461082c578063f464c4b314610897578063ffa6b34e146108e5575b600080fd5b34801561013957600080fd5b5061016f600480360381019080803560ff1690602001909291908035906020019092919080359060200190929190505050610926565b6040518082815260200191505060405180910390f35b6101ba600480360381019080803560ff1690602001909291908035906020019092919080359060200190929190505050610966565b604051808215151515815260200191505060405180910390f35b3480156101e057600080fd5b5061020c600480360381019080803560ff16906020019092919080359060200190929190505050610bbf565b6040518082815260200191505060405180910390f35b34801561022e57600080fd5b5061025a600480360381019080803560ff16906020019092919080359060200190929190505050610bea565b6040518080602001828103825283818151815260200191508051906020019060200280838360005b8381101561029d578082015181840152602081019050610282565b505050509050019250505060405180910390f35b3480156102bd57600080fd5b506102f3600480360381019080803560ff1690602001909291908035906020019092919080359060200190929190505050610c6a565b604051808215151515815260200191505060405180910390f35b34801561031957600080fd5b50610345600480360381019080803560ff16906020019092919080359060200190929190505050610cf3565b604051808215151515815260200191505060405180910390f35b34801561036b57600080fd5b50610397600480360381019080803560ff16906020019092919080359060200190929190505050610d28565b6040518082815260200191505060405180910390f35b3480156103b957600080fd5b506103ef600480360381019080803560ff1690602001909291908035906020019092919080359060200190929190505050610d89565b604051808215151515815260200191505060405180910390f35b34801561041557600080fd5b50610455600480360381019080803590602001909291908035906020019092919080359060200190929190803560ff169060200190929190505050610dd0565b6040518082815260200191505060405180910390f35b34801561047757600080fd5b506104ad600480360381019080803560ff1690602001909291908035906020019092919080359060200190929190505050610f04565b604051808273ffffffffffffffffffffffffffffffffffffffff1673ffffffffffffffffffffffffffffffffffffffff16815260200191505060405180910390f35b3480156104fb57600080fd5b5061054560048036038101908080359060200190929190803590602001909291908035906020019092919080359060200190929190803560ff169060200190929190505050610f5e565b6040518082815260200191505060405180910390f35b34801561056757600080fd5b50610593600480360381019080803560ff169060200190929190803590602001909291905050506110a3565b6040518082815260200191505060405180910390f35b3480156105b557600080fd5b506105d4600480360381019080803590602001909291905050506110cd565b604051808581526020018481526020018381526020018260028111156105f657fe5b60ff16815260200194505050505060405180910390f35b34801561061957600080fd5b5061063b600480360381019080803560ff16906020019092919050505061110a565b604051808215151515815260200191505060405180910390f35b34801561066157600080fd5b5061068d600480360381019080803560ff1690602001909291908035906020019092919050505061112c565b604051808215151515815260200191505060405180910390f35b3480156106b357600080fd5b506106e9600480360381019080803560ff16906020019092919080359060200190929190803590602001909291905050506112c4565b604051808215151515815260200191505060405180910390f35b34801561070f57600080fd5b50610731600480360381019080803560ff1690602001909291905050506113ad565b604051808215151515815260200191505060405180910390f35b34801561075757600080fd5b50610783600480360381019080803560ff169060200190929190803590602001909291905050506113cf565b604051808215151515815260200191505060405180910390f35b3480156107a957600080fd5b506107d5600480360381019080803560ff169060200190929190803590602001909291905050506113ea565b6040518080602001828103825283818151815260200191508051906020019060200280838360005b838110156108185780820151818401526020810190506107fd565b505050509050019250505060405180910390f35b34801561083857600080fd5b5061085760048036038101908080359060200190929190505050611460565b6040518086815260200185815260200184815260200183815260200182600281111561087f57fe5b60ff1681526020019550505050505060405180910390f35b3480156108a357600080fd5b506108cf600480360381019080803560ff169060200190929190803590602001909291905050506114a3565b6040518082815260200191505060405180910390f35b3480156108f157600080fd5b5061091060048036038101908080359060200190929190505050611504565b6040518082815260200191505060405180910390f35b600061093184611522565b60020160008481526020019081526020016000208281548110151561095257fe5b906000526020600020015490509392505050565b60008061097385856113cf565b15151561097f57600080fd5b61098a858585610c6a565b1515156109ff576040517f08c379a000000000000000000000000000000000000000000000000000000000815260040180806020018281038252601d8152602001807f4174686c65746520697320616c7265616479207265676973746572656400000081525060200191505060405180910390fd5b610a098585610d28565b9050803410151515610aa9576040517f08c379a00000000000000000000000000000000000000000000000000000000081526004018080602001828103825260278152602001807f456e74727920666565202865746865722076616c75652920697320696e73756681526020017f66696369656e740000000000000000000000000000000000000000000000000081525060400191505060405180910390fd5b33600080876001811115610ab957fe5b81526020019081526020016000206004016000868152602001908152602001600020600085815260200190815260200160002060006101000a81548173ffffffffffffffffffffffffffffffffffffffff021916908373ffffffffffffffffffffffffffffffffffffffff1602179055507f4495efbfa479d815230cacb2acf162b1ef747f1957e52e1fbd09c12aee553abc8585853360405180856001811115610b5f57fe5b60ff1681526020018481526020018381526020018273ffffffffffffffffffffffffffffffffffffffff1673ffffffffffffffffffffffffffffffffffffffff16815260200194505050505060405180910390a160019150509392505050565b6000610bca83611522565b600201600083815260200190815260200160002080549050905092915050565b606080600080600080610bfd8888610bbf565b9350600092505b83821015610c5c57610c17888884610926565b9050610c24888883610d89565b15610c4f57808584815181101515610c3857fe5b906020019060200201818152505082806001019350505b8180600101925050610c04565b849550505050505092915050565b60008073ffffffffffffffffffffffffffffffffffffffff16610c8c85611522565b6004016000858152602001908152602001600020600084815260200190815260200160002060009054906101000a900473ffffffffffffffffffffffffffffffffffffffff1673ffffffffffffffffffffffffffffffffffffffff16141590509392505050565b6000610cfe83611522565b600101600083815260200190815260200160002060009054906101000a900460ff16905092915050565b6000610d33836113ad565b15610d565760016000838152602001908152602001600020600001549050610d83565b610d5f8361110a565b15610d825760026000838152602001908152602001600020600001549050610d83565b5b92915050565b6000610d9484611522565b6003016000848152602001908152602001600020600083815260200190815260200160002060009054906101000a900460ff1690509392505050565b6000610dda611548565b6000608060405190810160405280888152602001878152602001868152602001856002811115610e0657fe5b8152509150610e156001611522565b600001549050816002600083815260200190815260200160002060008201518160000155602082015181600101556040820151816002015560608201518160030160006101000a81548160ff02191690836002811115610e7157fe5b0217905550905050600080600180811115610e8857fe5b8152602001908152602001600020600001600081548092919060010191905055507f7a2c23699ff5243c3078950824790834d7f749b893f3e5873768dca95dfae5d460018260405180836001811115610edd57fe5b60ff1681526020018281526020019250505060405180910390a18092505050949350505050565b6000610f0f84611522565b6004016000848152602001908152602001600020600083815260200190815260200160002060009054906101000a900473ffffffffffffffffffffffffffffffffffffffff1690509392505050565b6000610f6861157c565b600060a060405190810160405280898152602001888152602001878152602001868152602001856002811115610f9a57fe5b8152509150610fa96000611522565b60000154905081600160008381526020019081526020016000206000820151816000015560208201518160010155604082015181600201556060820151816003015560808201518160040160006101000a81548160ff0219169083600281111561100f57fe5b021790555090505060008080600181111561102657fe5b8152602001908152602001600020600001600081548092919060010191905055507f7a2c23699ff5243c3078950824790834d7f749b893f3e5873768dca95dfae5d46000826040518083600181111561107b57fe5b60ff1681526020018281526020019250505060405180910390a1809250505095945050505050565b60008060006110b28585610d28565b91506110be8585610bbf565b90508082029250505092915050565b60026020528060005260406000206000915090508060000154908060010154908060020154908060030160009054906101000a900460ff16905084565b600060018081111561111857fe5b82600181111561112457fe5b149050919050565b6000606060008060008060008060006111458b8b6113cf565b151561115057600080fd5b61115a8b8b610cf3565b15151561116657600080fd5b6111708b8b610bea565b9750875196506111808b8b6110a3565b9550868681151561118d57fe5b049450600093505b8684101561121b5787848151811015156111ab57fe5b9060200190602002015192506111c28b8b85610f04565b91508190508073ffffffffffffffffffffffffffffffffffffffff166108fc869081150290604051600060405180830381858888f1935050505015801561120d573d6000803e3d6000fd5b508380600101945050611195565b60016000808d600181111561122c57fe5b815260200190815260200160002060010160008c815260200190815260200160002060006101000a81548160ff0219169083151502179055507fda048bb591cf512fe11d5b66d83b0bbeed9ca4d855f6f5c362c3bb1285a55cf38b8b6040518083600181111561129857fe5b60ff1681526020018281526020019250505060405180910390a160019850505050505050505092915050565b60006112d08484610cf3565b1515156112dc57600080fd5b6112e7848484610c6a565b15156112f257600080fd5b600160008086600181111561130357fe5b81526020019081526020016000206003016000858152602001908152602001600020600084815260200190815260200160002060006101000a81548160ff0219169083151502179055507fa81db86e93caa3332e3c8b539b9c7d5c7eead8f6b9fac0261ad3248aa8c5e6f48484846040518084600181111561138157fe5b60ff168152602001838152602001828152602001935050505060405180910390a1600190509392505050565b60008060018111156113bb57fe5b8260018111156113c757fe5b149050919050565b6000806113dc84846114a3565b905080421191505092915050565b60606113f583611522565b600201600083815260200190815260200160002080548060200260200160405190810160405280929190818152602001828054801561145357602002820191906000526020600020905b81548152602001906001019080831161143f575b5050505050905092915050565b60016020528060005260406000206000915090508060000154908060010154908060020154908060030154908060040160009054906101000a900460ff16905085565b60006114ae836113ad565b156114d157600160008381526020019081526020016000206001015490506114fe565b6114da8361110a565b156114fd57600260008381526020019081526020016000206001015490506114fe565b5b92915050565b60006020528060005260406000206000915090508060000154905081565b600080600083600181111561153357fe5b81526020019081526020016000209050919050565b6080604051908101604052806000815260200160008152602001600081526020016000600281111561157657fe5b81525090565b60a06040519081016040528060008152602001600081526020016000815260200160008152602001600060028111156115b157fe5b815250905600a165627a7a7230582069593578ca5ea1b4d0e4078331d403f06a042163c820ab1297ff6140e849cdb20029",
  "source": "pragma solidity 0.4.24;\n\ncontract StravaChallengeHub {\n    // Libraries\n\n    // Enums\n    // https://solidity.readthedocs.io/en/v0.5.4/types.html?highlight=enum%20argument#enums\n    enum ActivityType { Ride, Run, Swim }     // Strava activity type\n    enum ChallengeType { Segment, Distance }  // Type of challenge\n    \n    // Structs\n    struct SegmentChallenge {\n        uint entryFee;              // amount ether to enter the challenge\n        uint expireTime;            // datetime that challenge expires at (seconds)\n        uint timeToBeat;            // time to complete segment in (seconds)\n        uint segmentId;           // strava segment id\n        ActivityType activityType;  // ride / run / swim (as uint)\n    }\n    struct DistanceChallenge {\n        uint entryFee;              // amount ether to enter the challenge\n        uint expireTime;            // datetime that challenge expires at (seconds)\n        uint distance;              // distance to complete the challenge (feet)\n        ActivityType activityType;  // ride / run / swim (as uint)\n    }\n    struct ChallengeMetaData {\n        uint numChallenges;\n        mapping (uint => bool) settled;\n        mapping (uint => uint[]) athleteIds;\n        mapping (uint => mapping(uint => bool)) athleteSucceeded;\n        mapping (uint => mapping(uint => address)) athleteAddress;\n    }\n\n    // Storage vars\n    mapping (uint => ChallengeMetaData) public challengeManager;\n    mapping (uint => SegmentChallenge) public segmentChallengesById;\n    mapping (uint => DistanceChallenge) public distanceChallengesById;\n\n    // Events\n    event ChallengeIssued (ChallengeType _challengeType, uint _challengeId);\n    event ChallengeJoined (ChallengeType _challengeType, uint _challengeId, uint _athleteId, address _athleteAddress);\n    event ChallengeSettled (ChallengeType _challengeType, uint _challengeId);\n    event AthleteSucceeded (ChallengeType _challengeType, uint _challengeId, uint _athleteId);\n\n    // Pure / View functions\n    // ------------------------------------------------------\n    function _getChallengeMetaData(ChallengeType _challengeType) internal view returns (ChallengeMetaData storage) {\n        return challengeManager[uint(_challengeType)];\n    }\n    \n    function isChallengeSettled(ChallengeType _challengeType, uint _challengeId) public view returns (bool) {\n        return _getChallengeMetaData(_challengeType).settled[_challengeId];\n    }\n    \n    function isAthleteRegistered(ChallengeType _challengeType, uint _challengeId, uint _athleteId) public view returns (bool) {\n        return _getChallengeMetaData(_challengeType).athleteAddress[_challengeId][_athleteId] != address(0x0);\n    }\n\n    function isAthleteSuccessful(ChallengeType _challengeType, uint _challengeId, uint _athleteId) public view returns (bool) {\n        return _getChallengeMetaData(_challengeType).athleteSucceeded[_challengeId][_athleteId];\n    }\n    \n    function getNumAthletes(ChallengeType _challengeType, uint _challengeId) public view returns (uint) {\n        return _getChallengeMetaData(_challengeType).athleteIds[_challengeId].length;\n    }\n    \n    function getAthleteIdAtIndex(ChallengeType _challengeType, uint _challengeId, uint index) public view returns (uint) {\n        return _getChallengeMetaData(_challengeType).athleteIds[_challengeId][index];\n    }\n    \n    function getAthleteAddress(ChallengeType _challengeType, uint _challengeId, uint _athleteId) public view returns (address paybale) {\n        return _getChallengeMetaData(_challengeType).athleteAddress[_challengeId][_athleteId];\n    }\n\n    function isSegmentChallenge(ChallengeType _challengeType) public pure returns (bool) {\n        return _challengeType == ChallengeType.Segment;\n    }\n    \n    function isDistanceChallenge(ChallengeType _challengeType) public pure returns (bool) {\n        return _challengeType == ChallengeType.Distance;\n    }\n\n    function getChallengeExpireTime(ChallengeType _challengeType, uint _challengeId) public view returns (uint) {\n        if (isSegmentChallenge(_challengeType))\n            return segmentChallengesById[_challengeId].expireTime;\n        if (isDistanceChallenge(_challengeType))\n            return distanceChallengesById[_challengeId].expireTime;\n    }\n    \n    function getChallengeEntryFee(ChallengeType _challengeType, uint _challengeId) public view returns (uint) {\n        if (isSegmentChallenge(_challengeType))\n            return segmentChallengesById[_challengeId].entryFee;\n        if (isDistanceChallenge(_challengeType))\n            return distanceChallengesById[_challengeId].entryFee;\n    }\n    \n    function isChallengeExpired(ChallengeType _challengeType, uint _challengeId) public view returns (bool) {\n        uint expireTime = getChallengeExpireTime(_challengeType, _challengeId);\n        return now > expireTime;\n    }\n\n    function getAthleteIds(ChallengeType _challengeType, uint _challengeId) public view returns (uint[] memory) {\n        return _getChallengeMetaData(_challengeType).athleteIds[_challengeId];\n    }\n    \n    function getSuccessfulAthleteIds(ChallengeType _challengeType, uint _challengeId) public view returns (uint[] memory) {\n        uint[] memory successfulAthleteIds;\n        uint numAthletes = getNumAthletes(_challengeType, _challengeId);\n        uint resultIndex = 0;\n        \n        // iterate over athlete ids, push successful ones to array\n        for (uint index; index < numAthletes; index++) {\n            uint _athleteId = getAthleteIdAtIndex(_challengeType, _challengeId, index);\n            if (isAthleteSuccessful(_challengeType, _challengeId, _athleteId)) {\n                successfulAthleteIds[resultIndex] = _athleteId;\n                resultIndex++;\n            }\n        }\n        \n        return successfulAthleteIds;\n    }\n    \n    function getTotalChallengeFunds(ChallengeType _challengeType, uint _challengeId) public view returns (uint) {\n        uint entryFee = getChallengeEntryFee(_challengeType, _challengeId);\n        uint numAthletes = getNumAthletes(_challengeType, _challengeId);\n        return entryFee * numAthletes;\n    }\n    \n    // Destructive functions\n    // ------------------------------------------------------\n    function issueSegmentChallenge(\n        uint _entryFee,\n        uint _expireTime,\n        uint _timeToBeat,\n        uint _segmentId,\n        ActivityType _activityType\n    ) public returns (uint) {\n        // initialize SegmentChallenge struct\n        SegmentChallenge memory issuedSegmentChallenge = SegmentChallenge({\n            entryFee: _entryFee,\n            expireTime: _expireTime,\n            timeToBeat: _timeToBeat,\n            segmentId: _segmentId,\n            activityType: _activityType\n        });\n        \n        // Get the challenge id from the number of challenges\n        uint _challengeId = _getChallengeMetaData(ChallengeType.Segment).numChallenges;\n        \n        // Add struct to challenges mapping\n        segmentChallengesById[_challengeId] = issuedSegmentChallenge;\n        \n        // Increment the counter\n        challengeManager[uint(ChallengeType.Segment)].numChallenges++;\n        \n        // Log ChallengeIssued event\n        emit ChallengeIssued(ChallengeType.Segment, _challengeId);\n        \n        // return challengeId\n        return _challengeId;\n    }\n    \n    function issueDistanceChallenge(\n        uint _entryFee,\n        uint _expireTime,\n        uint _distance,\n        ActivityType _activityType\n    ) public returns (uint) {\n        // initialize DistanceChallenge struct\n        DistanceChallenge memory issuedDistanceChallenge = DistanceChallenge({\n            entryFee: _entryFee,\n            expireTime: _expireTime,\n            distance: _distance,\n            activityType: _activityType\n        });\n        \n        // Get the challenge id from the number of challenges\n        uint _challengeId = _getChallengeMetaData(ChallengeType.Distance).numChallenges;\n        \n        // Add struct to challenges mapping\n        distanceChallengesById[_challengeId] = issuedDistanceChallenge;\n        \n        // Increment the counter\n        challengeManager[uint(ChallengeType.Distance)].numChallenges++;\n        \n        // Log ChallengeIssued event\n        emit ChallengeIssued(ChallengeType.Distance, _challengeId);\n        \n        // return challengeId\n        return _challengeId;\n    }\n    \n\n    function joinChallenge (\n        ChallengeType _challengeType,\n        uint _challengeId,\n        uint _athleteId\n    ) public payable returns (bool) {\n        // make sure challenge is not expired\n        require(!isChallengeExpired(_challengeType, _challengeId));\n        \n        // make sure athlete hasn't joined the challenge already\n        require(!isAthleteRegistered(_challengeType, _challengeId, _athleteId), \"Athlete is already registered\");\n\n        // make sure sender is paying their full entry fee\n        uint entryFee = getChallengeEntryFee(_challengeType, _challengeId);\n        require(msg.value >= entryFee, \"Entry fee (ether value) is insufficient\");\n    \n        // flag athelete as registered for challenge\n        challengeManager[uint(_challengeType)].athleteAddress[_challengeId][_athleteId] = msg.sender;\n\n        // Log ChallengeJoined event\n        emit ChallengeJoined(_challengeType, _challengeId, _athleteId, msg.sender);\n        \n        return true;\n    }\n    \n    // TODO: Permissions\n    function setAthleteSucceeded(\n        ChallengeType _challengeType,\n        uint _challengeId,\n        uint _athleteId\n    ) external returns (bool) {\n        // check that challenge is not settled and the athlete is registered\n        require(!isChallengeSettled(_challengeType, _challengeId));\n        require(isAthleteRegistered(_challengeType, _challengeId, _athleteId));\n        \n        // flag athlete as successful\n        challengeManager[uint(_challengeType)].athleteSucceeded[_challengeId][_athleteId] = true;\n        \n        // log AthleteSuceeded event\n        emit AthleteSucceeded(_challengeType, _challengeId, _athleteId);\n        \n        return true;\n    }\n    \n    // TODO: Permissions\n    function settleChallenge (\n        ChallengeType _challengeType,\n        uint _challengeId\n    ) external returns (bool) {\n        // make sure challenge is expired and not settled\n        require(isChallengeExpired(_challengeType, _challengeId));\n        require(!isChallengeSettled(_challengeType, _challengeId));\n        \n        uint[] memory successfulAthleteIds = getSuccessfulAthleteIds(_challengeType, _challengeId);\n        uint numAthletesSucceeded = successfulAthleteIds.length;\n        uint totalChallengeFunds = getTotalChallengeFunds(_challengeType, _challengeId);\n        uint rewardValue = totalChallengeFunds / numAthletesSucceeded;\n        \n        for (uint index = 0; index < numAthletesSucceeded; index++) {\n            uint _athleteId = successfulAthleteIds[index];\n            address _athleteAddress = getAthleteAddress(_challengeType, _challengeId, _athleteId);\n            address recipient = address(uint160(_athleteAddress));\n            recipient.transfer(rewardValue);\n        }\n        \n        // flag challenge as settled\n        challengeManager[uint(_challengeType)].settled[_challengeId] = true;\n        \n        // emit ChallengeSettled event\n        emit ChallengeSettled(_challengeType, _challengeId);\n\n        return true;\n    }\n}",
  "sourcePath": "/Users/rongierlach/Development/gran-fondo/contracts/StravaChallengeHub.sol",
  "compiler": {
    "name": "solc",
    "version": "0.4.24+commit.e67f0147.Emscripten.clang"
  },
  "schemaVersion": "3.0.2",
  "updatedAt": "2019-02-16T23:14:15.532Z",
  "devdoc": {
    "methods": {}
  },
  "userdoc": {
    "methods": {}
  }
}