{
  "contractName": "StravaChallengeHub",
  "abi": [
    {
      "constant": true,
      "inputs": [
        {
          "name": "",
          "type": "uint256"
        },
        {
          "name": "",
          "type": "uint256"
        }
      ],
      "name": "athletesByDistanceChallengeId",
      "outputs": [
        {
          "name": "",
          "type": "string"
        }
      ],
      "payable": false,
      "stateMutability": "view",
      "type": "function"
    },
    {
      "constant": true,
      "inputs": [],
      "name": "numSegmentChallenges",
      "outputs": [
        {
          "name": "",
          "type": "uint256"
        }
      ],
      "payable": false,
      "stateMutability": "view",
      "type": "function"
    },
    {
      "constant": true,
      "inputs": [
        {
          "name": "",
          "type": "uint256"
        },
        {
          "name": "",
          "type": "uint256"
        }
      ],
      "name": "athletesBySegmentChallengeId",
      "outputs": [
        {
          "name": "",
          "type": "string"
        }
      ],
      "payable": false,
      "stateMutability": "view",
      "type": "function"
    },
    {
      "constant": true,
      "inputs": [
        {
          "name": "",
          "type": "uint256"
        }
      ],
      "name": "distanceChallengesById",
      "outputs": [
        {
          "name": "entryFee",
          "type": "uint256"
        },
        {
          "name": "expireTime",
          "type": "uint256"
        },
        {
          "name": "distance",
          "type": "uint256"
        },
        {
          "name": "activityType",
          "type": "uint8"
        }
      ],
      "payable": false,
      "stateMutability": "view",
      "type": "function"
    },
    {
      "constant": true,
      "inputs": [],
      "name": "numDistanceChallenges",
      "outputs": [
        {
          "name": "",
          "type": "uint256"
        }
      ],
      "payable": false,
      "stateMutability": "view",
      "type": "function"
    },
    {
      "constant": true,
      "inputs": [
        {
          "name": "",
          "type": "uint256"
        }
      ],
      "name": "segmentChallengesById",
      "outputs": [
        {
          "name": "entryFee",
          "type": "uint256"
        },
        {
          "name": "expireTime",
          "type": "uint256"
        },
        {
          "name": "timeToBeat",
          "type": "uint256"
        },
        {
          "name": "segmentId",
          "type": "uint256"
        },
        {
          "name": "activityType",
          "type": "uint8"
        }
      ],
      "payable": false,
      "stateMutability": "view",
      "type": "function"
    },
    {
      "anonymous": false,
      "inputs": [
        {
          "indexed": false,
          "name": "_challengeType",
          "type": "uint8"
        },
        {
          "indexed": false,
          "name": "_challengeId",
          "type": "uint256"
        }
      ],
      "name": "ChallengeIssued",
      "type": "event"
    },
    {
      "anonymous": false,
      "inputs": [
        {
          "indexed": false,
          "name": "_challengeType",
          "type": "uint8"
        },
        {
          "indexed": false,
          "name": "_challengeId",
          "type": "uint256"
        },
        {
          "indexed": false,
          "name": "_athleteId",
          "type": "string"
        }
      ],
      "name": "ChallengeJoined",
      "type": "event"
    },
    {
      "constant": true,
      "inputs": [
        {
          "name": "_challengeType",
          "type": "uint8"
        },
        {
          "name": "_challengeId",
          "type": "uint256"
        }
      ],
      "name": "getChallengeExpireTime",
      "outputs": [
        {
          "name": "",
          "type": "uint256"
        }
      ],
      "payable": false,
      "stateMutability": "view",
      "type": "function"
    },
    {
      "constant": true,
      "inputs": [
        {
          "name": "_challengeType",
          "type": "uint8"
        },
        {
          "name": "_challengeId",
          "type": "uint256"
        }
      ],
      "name": "isChallengeActive",
      "outputs": [
        {
          "name": "",
          "type": "bool"
        }
      ],
      "payable": false,
      "stateMutability": "view",
      "type": "function"
    },
    {
      "constant": true,
      "inputs": [
        {
          "name": "_challengeType",
          "type": "uint8"
        },
        {
          "name": "_challengeId",
          "type": "uint256"
        }
      ],
      "name": "getChallengeEntryFee",
      "outputs": [
        {
          "name": "",
          "type": "uint256"
        }
      ],
      "payable": false,
      "stateMutability": "view",
      "type": "function"
    },
    {
      "constant": true,
      "inputs": [
        {
          "name": "_challengeType",
          "type": "uint8"
        },
        {
          "name": "_challengeId",
          "type": "uint256"
        }
      ],
      "name": "getNumChallengeAthletes",
      "outputs": [
        {
          "name": "",
          "type": "uint256"
        }
      ],
      "payable": false,
      "stateMutability": "view",
      "type": "function"
    },
    {
      "constant": true,
      "inputs": [
        {
          "name": "_challengeType",
          "type": "uint8"
        },
        {
          "name": "_challengeId",
          "type": "uint256"
        }
      ],
      "name": "totalChallengeFunds",
      "outputs": [
        {
          "name": "",
          "type": "uint256"
        }
      ],
      "payable": false,
      "stateMutability": "view",
      "type": "function"
    },
    {
      "constant": false,
      "inputs": [
        {
          "name": "_entryFee",
          "type": "uint256"
        },
        {
          "name": "_expireTime",
          "type": "uint256"
        },
        {
          "name": "_timeToBeat",
          "type": "uint256"
        },
        {
          "name": "_segmentId",
          "type": "uint256"
        },
        {
          "name": "_activityType",
          "type": "uint8"
        }
      ],
      "name": "issueSegmentChallenge",
      "outputs": [
        {
          "name": "",
          "type": "uint256"
        }
      ],
      "payable": false,
      "stateMutability": "nonpayable",
      "type": "function"
    },
    {
      "constant": false,
      "inputs": [
        {
          "name": "_entryFee",
          "type": "uint256"
        },
        {
          "name": "_expireTime",
          "type": "uint256"
        },
        {
          "name": "_distance",
          "type": "uint256"
        },
        {
          "name": "_activityType",
          "type": "uint8"
        }
      ],
      "name": "issueDistanceChallenge",
      "outputs": [
        {
          "name": "",
          "type": "uint256"
        }
      ],
      "payable": false,
      "stateMutability": "nonpayable",
      "type": "function"
    },
    {
      "constant": false,
      "inputs": [
        {
          "name": "_challengeType",
          "type": "uint8"
        },
        {
          "name": "_challengeId",
          "type": "uint256"
        },
        {
          "name": "_athleteId",
          "type": "uint256"
        }
      ],
      "name": "joinChallenge",
      "outputs": [
        {
          "name": "",
          "type": "bool"
        }
      ],
      "payable": true,
      "stateMutability": "payable",
      "type": "function"
    },
    {
      "constant": false,
      "inputs": [
        {
          "name": "_challengeType",
          "type": "uint8"
        },
        {
          "name": "_challengeId",
          "type": "uint256"
        }
      ],
      "name": "settleChallenge",
      "outputs": [
        {
          "name": "",
          "type": "bool"
        }
      ],
      "payable": false,
      "stateMutability": "nonpayable",
      "type": "function"
    }
  ],
  "bytecode": "0x608060405260008055600060035534801561001957600080fd5b50610e19806100296000396000f3fe6080604052600436106100db576000357c0100000000000000000000000000000000000000000000000000000000900463ffffffff16806304014466146100e05780630bf2147014610140578063129ffb951461019d5780636f83cc08146101f95780638d7119d9146102555780639104fcc614610313578063958f21c41461033e578063a02ccf80146103ae578063abb7f25c14610428578063af315109146104e6578063b25752b614610558578063d7fec7e4146105b8578063f3e92108146105e3578063f464c4b31461065c578063fc820f70146106b8575b600080fd5b3480156100ec57600080fd5b506101266004803603604081101561010357600080fd5b81019080803560ff16906020019092919080359060200190929190505050610714565b604051808215151515815260200191505060405180910390f35b6101836004803603606081101561015657600080fd5b81019080803560ff169060200190929190803590602001909291908035906020019092919050505061072f565b604051808215151515815260200191505060405180910390f35b3480156101a957600080fd5b506101e3600480360360408110156101c057600080fd5b81019080803560ff16906020019092919080359060200190929190505050610738565b6040518082815260200191505060405180910390f35b34801561020557600080fd5b5061023f6004803603604081101561021c57600080fd5b81019080803560ff169060200190929190803590602001909291905050506107bb565b6040518082815260200191505060405180910390f35b34801561026157600080fd5b506102986004803603604081101561027857600080fd5b81019080803590602001909291908035906020019092919050505061083e565b6040518080602001828103825283818151815260200191508051906020019080838360005b838110156102d85780820151818401526020810190506102bd565b50505050905090810190601f1680156103055780820380516001836020036101000a031916815260200191505b509250505060405180910390f35b34801561031f57600080fd5b50610328610906565b6040518082815260200191505060405180910390f35b34801561034a57600080fd5b506103986004803603608081101561036157600080fd5b81019080803590602001909291908035906020019092919080359060200190929190803560ff16906020019092919050505061090c565b6040518082815260200191505060405180910390f35b3480156103ba57600080fd5b50610412600480360360a08110156103d157600080fd5b8101908080359060200190929190803590602001909291908035906020019092919080359060200190929190803560ff169060200190929190505050610a15565b6040518082815260200191505060405180910390f35b34801561043457600080fd5b5061046b6004803603604081101561044b57600080fd5b810190808035906020019092919080359060200190929190505050610b2d565b6040518080602001828103825283818151815260200191508051906020019080838360005b838110156104ab578082015181840152602081019050610490565b50505050905090810190601f1680156104d85780820380516001836020036101000a031916815260200191505b509250505060405180910390f35b3480156104f257600080fd5b5061051f6004803603602081101561050957600080fd5b8101908080359060200190929190505050610bf5565b6040518085815260200184815260200183815260200182600281111561054157fe5b60ff16815260200194505050505060405180910390f35b34801561056457600080fd5b5061059e6004803603604081101561057b57600080fd5b81019080803560ff16906020019092919080359060200190929190505050610c32565b604051808215151515815260200191505060405180910390f35b3480156105c457600080fd5b506105cd610c3a565b6040518082815260200191505060405180910390f35b3480156105ef57600080fd5b5061061c6004803603602081101561060657600080fd5b8101908080359060200190929190505050610c40565b6040518086815260200185815260200184815260200183815260200182600281111561064457fe5b60ff1681526020019550505050505060405180910390f35b34801561066857600080fd5b506106a26004803603604081101561067f57600080fd5b81019080803560ff16906020019092919080359060200190929190505050610c83565b6040518082815260200191505060405180910390f35b3480156106c457600080fd5b506106fe600480360360408110156106db57600080fd5b81019080803560ff16906020019092919080359060200190929190505050610d06565b6040518082815260200191505060405180910390f35b6000806107218484610c83565b905042811191505092915050565b60009392505050565b6000806000600181111561074857fe5b84600181111561075457fe5b141561077857600260008481526020019081526020016000208054905090506107b1565b60018081111561078457fe5b84600181111561079057fe5b14156107b057600560008481526020019081526020016000208054905090505b5b8091505092915050565b600080600060018111156107cb57fe5b8460018111156107d757fe5b14156107fb5760016000848152602001908152602001600020600001549050610834565b60018081111561080757fe5b84600181111561081357fe5b141561083357600460008481526020019081526020016000206000015490505b5b8091505092915050565b60056020528160005260406000208181548110151561085957fe5b90600052602060002001600091509150508054600181600116156101000203166002900480601f0160208091040260200160405190810160405280929190818152602001828054600181600116156101000203166002900480156108fe5780601f106108d3576101008083540402835291602001916108fe565b820191906000526020600020905b8154815290600101906020018083116108e157829003601f168201915b505050505081565b60005481565b6000610916610d7e565b60806040519081016040528087815260200186815260200185815260200184600281111561094057fe5b81525090508060046000600354815260200190815260200160002060008201518160000155602082015181600101556040820151816002015560608201518160030160006101000a81548160ff0219169083600281111561099d57fe5b02179055509050506000600360008154809291906001019190505590507f7a2c23699ff5243c3078950824790834d7f749b893f3e5873768dca95dfae5d4600182604051808360018111156109ee57fe5b60ff1681526020018281526020019250505060405180910390a18092505050949350505050565b6000610a1f610db2565b60a060405190810160405280888152602001878152602001868152602001858152602001846002811115610a4f57fe5b81525090508060016000805481526020019081526020016000206000820151816000015560208201518160010155604082015181600201556060820151816003015560808201518160040160006101000a81548160ff02191690836002811115610ab557fe5b021790555090505060008060008154809291906001019190505590507f7a2c23699ff5243c3078950824790834d7f749b893f3e5873768dca95dfae5d460008260405180836001811115610b0557fe5b60ff1681526020018281526020019250505060405180910390a1809250505095945050505050565b600260205281600052604060002081815481101515610b4857fe5b90600052602060002001600091509150508054600181600116156101000203166002900480601f016020809104026020016040519081016040528092919081815260200182805460018160011615610100020316600290048015610bed5780601f10610bc257610100808354040283529160200191610bed565b820191906000526020600020905b815481529060010190602001808311610bd057829003601f168201915b505050505081565b60046020528060005260406000206000915090508060000154908060010154908060020154908060030160009054906101000a900460ff16905084565b600092915050565b60035481565b60016020528060005260406000206000915090508060000154908060010154908060020154908060030154908060040160009054906101000a900460ff16905085565b60008060006001811115610c9357fe5b846001811115610c9f57fe5b1415610cc35760016000848152602001908152602001600020600101549050610cfc565b600180811115610ccf57fe5b846001811115610cdb57fe5b1415610cfb57600460008481526020019081526020016000206001015490505b5b8091505092915050565b600080610d1384846107bb565b90506000610d218585610738565b9050610d368183610d4090919063ffffffff16565b9250505092915050565b600080831415610d535760009050610d78565b60008284029050828482811515610d6657fe5b04141515610d7357600080fd5b809150505b92915050565b60806040519081016040528060008152602001600081526020016000815260200160006002811115610dac57fe5b81525090565b60a0604051908101604052806000815260200160008152602001600081526020016000815260200160006002811115610de757fe5b8152509056fea165627a7a72305820e4698cf97f315bfda91dc948543e56f325f7092f4494d31ee44360f2e19e2f1d0029",
  "source": "pragma solidity ^0.5.0;\nimport \"openzeppelin-solidity/contracts/math/SafeMath.sol\";\n\ncontract StravaChallengeHub {\n    // Libraries\n    using SafeMath for uint;\n\n    // Enums\n    // https://solidity.readthedocs.io/en/v0.5.4/types.html?highlight=enum%20argument#enums\n    enum ActivityType { Ride, Run, Swim }     // Strava activity type\n    enum ChallengeType { Segment, Distance }  // Type of challenge\n    \n    // Structs\n    struct SegmentChallenge {\n        uint entryFee;              // amount ether to enter the challenge\n        uint expireTime;            // datetime that challenge expires at (seconds)\n        uint timeToBeat;            // time to complete segment in (seconds)\n        uint segmentId;           // strava segment id\n        ActivityType activityType;  // ride / run / swim (as uint)\n    }\n    struct DistanceChallenge {\n        uint entryFee;              // amount ether to enter the challenge\n        uint expireTime;            // datetime that challenge expires at (seconds)\n        uint distance;              // distance to complete the challenge (feet)\n        ActivityType activityType;  // ride / run / swim (as uint)\n    }\n    \n    // Storage vars\n    uint public numSegmentChallenges = 0;\n    mapping (uint => SegmentChallenge) public segmentChallengesById;\n    mapping (uint => string[]) public athletesBySegmentChallengeId;\n\n    uint public numDistanceChallenges = 0;\n    mapping (uint => DistanceChallenge) public distanceChallengesById;\n    mapping (uint => string[]) public athletesByDistanceChallengeId;\n    \n    // Events\n    event ChallengeIssued (ChallengeType _challengeType, uint _challengeId);\n    event ChallengeJoined (ChallengeType _challengeType, uint _challengeId, string _athleteId);\n    \n    // View functions\n    // ------------------------------------------------------\n    function getChallengeExpireTime(ChallengeType _challengeType, uint _challengeId) public view returns (uint) {\n        uint expireTime;\n        if (_challengeType == ChallengeType.Segment) {\n            expireTime = segmentChallengesById[_challengeId].expireTime;\n        } else if (_challengeType == ChallengeType.Distance) {\n            expireTime = distanceChallengesById[_challengeId].expireTime;\n        }\n        return expireTime;\n    }\n    \n    function isChallengeActive(ChallengeType _challengeType, uint _challengeId) public view returns (bool) {\n        uint expireTime = getChallengeExpireTime(_challengeType, _challengeId);\n        return expireTime > now;\n    }\n    \n    function getChallengeEntryFee(ChallengeType _challengeType, uint _challengeId) public view returns (uint) {\n        uint entryFee;\n        if (_challengeType == ChallengeType.Segment) {\n            entryFee = segmentChallengesById[_challengeId].entryFee;\n        } else if (_challengeType == ChallengeType.Distance) {\n            entryFee = distanceChallengesById[_challengeId].entryFee;\n        }\n        return entryFee;\n    }\n    \n    function getNumChallengeAthletes(ChallengeType _challengeType, uint _challengeId) public view returns (uint) {\n        uint numAthletes;\n        if (_challengeType == ChallengeType.Segment) {\n            numAthletes = athletesBySegmentChallengeId[_challengeId].length;\n        } else if (_challengeType == ChallengeType.Distance) {\n            numAthletes = athletesByDistanceChallengeId[_challengeId].length;\n        }\n        return numAthletes;\n    }\n    \n    function totalChallengeFunds(ChallengeType _challengeType, uint _challengeId) public view returns (uint) {\n        uint entryFee = getChallengeEntryFee(_challengeType, _challengeId);\n        uint numAthletes = getNumChallengeAthletes(_challengeType, _challengeId);\n        return entryFee.mul(numAthletes);\n    }\n    \n    // Destructive functions\n    // ------------------------------------------------------\n    function issueSegmentChallenge(\n        uint _entryFee,\n        uint _expireTime,\n        uint _timeToBeat,\n        uint _segmentId,\n        ActivityType _activityType\n    ) public returns (uint) {\n        // initialize SegmentChallenge struct\n        SegmentChallenge memory issuedSegmentChallenge = SegmentChallenge({\n            entryFee: _entryFee,\n            expireTime: _expireTime,\n            timeToBeat: _timeToBeat,\n            segmentId: _segmentId,\n            activityType: _activityType\n        });\n        \n        // Add struct to challenges mapping\n        segmentChallengesById[numSegmentChallenges] = issuedSegmentChallenge;\n        \n        // get the challengeId and increment counter\n        uint _challengeId = numSegmentChallenges++;\n        \n        // Log ChallengeIssued event\n        emit ChallengeIssued(ChallengeType.Segment, _challengeId);\n        \n        // return challengeId\n        return _challengeId;\n    }\n    \n    function issueDistanceChallenge(\n        uint _entryFee,\n        uint _expireTime,\n        uint _distance,\n        ActivityType _activityType\n    ) public returns (uint) {\n        // initialize DistanceChallenge struct\n        DistanceChallenge memory issuedDistanceChallenge = DistanceChallenge({\n            entryFee: _entryFee,\n            expireTime: _expireTime,\n            distance: _distance,\n            activityType: _activityType\n        });\n        \n        // Add struct to challenges mapping\n        distanceChallengesById[numDistanceChallenges] = issuedDistanceChallenge;\n        \n        // get the challengeId and increment counter\n        uint _challengeId = numDistanceChallenges++;\n        \n        // Log ChallengeIssued event\n        emit ChallengeIssued(ChallengeType.Distance, _challengeId);\n        \n        // return challengeId\n        return _challengeId;\n    }\n    \n    function joinChallenge (\n        ChallengeType _challengeType,\n        uint _challengeId,\n        uint _athleteId\n    ) public payable returns (bool) {\n        \n    }\n    \n    function settleChallenge (\n        ChallengeType _challengeType,\n        uint _challengeId\n    ) public returns (bool) {\n        \n    }\n    \n}\n\n",
  "sourcePath": "/Users/rongierlach/Development/gran-fondo/contracts/StravaChallengeHub.sol",
  "compiler": {
    "name": "solc",
    "version": "0.5.0+commit.1d4f565a.Emscripten.clang"
  },
  "schemaVersion": "3.0.2",
  "updatedAt": "2019-02-16T05:28:18.267Z",
  "devdoc": {
    "methods": {}
  },
  "userdoc": {
    "methods": {}
  }
}